:020000040000FA
:10C000003DB8F3960000000000020000A49B000071
:10C01000000000000100000000000000000000001F
:10C02000FFFFFFFFFFFFFFFFFFFFFFFFFFFFFFFF20
:10C03000FFFFFFFFFFFFFFFFFFFFFFFFFFFFFFFF10
:10C04000FFFFFFFFFFFFFFFFFFFFFFFFFFFFFFFF00
:10C05000FFFFFFFFFFFFFFFFFFFFFFFFFFFFFFFFF0
:10C06000FFFFFFFFFFFFFFFFFFFFFFFFFFFFFFFFE0
:10C07000FFFFFFFFFFFFFFFFFFFFFFFFFFFFFFFFD0
:10C08000FFFFFFFFFFFFFFFFFFFFFFFFFFFFFFFFC0
:10C09000FFFFFFFFFFFFFFFFFFFFFFFFFFFFFFFFB0
:10C0A000FFFFFFFFFFFFFFFFFFFFFFFFFFFFFFFFA0
:10C0B000FFFFFFFFFFFFFFFFFFFFFFFFFFFFFFFF90
:10C0C000FFFFFFFFFFFFFFFFFFFFFFFFFFFFFFFF80
:10C0D000FFFFFFFFFFFFFFFFFFFFFFFFFFFFFFFF70
:10C0E000FFFFFFFFFFFFFFFFFFFFFFFFFFFFFFFF60
:10C0F000FFFFFFFFFFFFFFFFFFFFFFFFFFFFFFFF50
:10C10000FFFFFFFFFFFFFFFFFFFFFFFFFFFFFFFF3F
:10C11000FFFFFFFFFFFFFFFFFFFFFFFFFFFFFFFF2F
:10C12000FFFFFFFFFFFFFFFFFFFFFFFFFFFFFFFF1F
:10C13000FFFFFFFFFFFFFFFFFFFFFFFFFFFFFFFF0F
:10C14000FFFFFFFFFFFFFFFFFFFFFFFFFFFFFFFFFF
:10C15000FFFFFFFFFFFFFFFFFFFFFFFFFFFFFFFFEF
:10C16000FFFFFFFFFFFFFFFFFFFFFFFFFFFFFFFFDF
:10C17000FFFFFFFFFFFFFFFFFFFFFFFFFFFFFFFFCF
:10C18000FFFFFFFFFFFFFFFFFFFFFFFFFFFFFFFFBF
:10C19000FFFFFFFFFFFFFFFFFFFFFFFFFFFFFFFFAF
:10C1A000FFFFFFFFFFFFFFFFFFFFFFFFFFFFFFFF9F
:10C1B000FFFFFFFFFFFFFFFFFFFFFFFFFFFFFFFF8F
:10C1C000FFFFFFFFFFFFFFFFFFFFFFFFFFFFFFFF7F
:10C1D000FFFFFFFFFFFFFFFFFFFFFFFFFFFFFFFF6F
:10C1E000FFFFFFFFFFFFFFFFFFFFFFFFFFFFFFFF5F
:10C1F000FFFFFFFFFFFFFFFFFFFFFFFFFFFFFFFF4F
:10C20000E017002011DB0000172C0100E5DA000028
:10C21000E5DA0000E5DA0000E5DA000000000000E1
:10C22000000000000000000000000000EDD700004A
:10C23000E5DA00000000000099D70000E5DA000010
:10C24000A5D80000A5D80000A5D80000A5D80000FA
:10C25000A5D80000A5D80000A5D80000A5D80000EA
:10C26000A5D80000A5D80000A5D80000A5D80000DA
:10C27000A5D80000A5D80000A5D80000A5D80000CA
:10C28000A5D80000A5D80000A5D80000A5D80000BA
:10C29000A5D80000A5D80000A5D80000A5D80000AA
:10C2A000A5D80000A5D80000A5D80000A5D800009A
:10C2B000A5D80000A5D80000A5D80000A5D800008A
:10C2C000A5D80000A5D80000A5D80000A5D800007A
:10C2D000A5D80000A5D80000A5D80000A5D800006A
:10C2E000A5D80000A5D80000A5D80000A5D800005A
:10C2F000A5D80000A5D80000A5D80000A5D800004A
:10C3000053B94AB9002908BF00281CBF4FF0FF31BC
:10C310004FF0FF3000F06CB9ADF1080C6DE904CEC0
:10C3200000F006F8DDF804E0DDE9022304B0704710
:10C330002DE9F047089E0D4604468E46002B40F03E
:10C3400082808A42174646D9B2FA82F24AB1C2F1D5
:10C35000200105FA02F320FA01F1974041EA030EA9
:10C3600094404FEA1748230CBEFBF8FCB9B208FB17
:10C370001CEE43EA0E430CFB01F098420AD9FB186D
:10C380000CF1FF3580F01681984240F21381ACF138
:10C39000020C3B441B1AA4B2B3FBF8F008FB1033A9
:10C3A00044EA034400FB01F1A14209D93C1900F120
:10C3B000FF3380F00181A14240F2FE8002383C440C
:10C3C000641A40EA0C4000211EB1D4400023C6E9A3
:10C3D0000043BDE8F08702B9FFDEB2FA82F2002A1C
:10C3E0004FD1CB1B4FEA174E1FFA87F80121B3FB41
:10C3F000FEFC250C0EFB1C3345EA034508FB0CF341
:10C40000AB4207D97D190CF1FF3002D2AB4200F2EA
:10C41000E7808446ED1AA3B2B5FBFEF00EFB105583
:10C4200043EA054408FB00F8A04507D93C1900F190
:10C43000FF3302D2A04500F2D7801846A4EB0804CF
:10C4400040EA0C40C0E78B4208D9002E00F0AF80D4
:10C450000021C6E900050846BDE8F087B3FA83F17C
:10C4600000294BD1AB4202D3824200F2B780841A3A
:10C4700065EB030301209E46002EAAD0C6E9004EBC
:10C48000A7E7C2F1200C01FA02F3974020FA0CF062
:10C490004FEA174E21FA0CFC1843BCFBFEF1050CC9
:10C4A0000EFB11CC1FFA87F845EA0C4501FB08F397
:10C4B000AB4204FA02F409D97D1901F1FF3C80F086
:10C4C0008B80AB4240F2888002393D44EB1A85B242
:10C4D000B3FBFEF00EFB103345EA034500FB08F307
:10C4E000AB4207D97D1900F1FF3C71D2AB426FD945
:10C4F00002383D44EB1A40EA014178E7C1F1200CD3
:10C500008B4022FA0CF71F4320FA0CF405FA01F3D2
:10C510004FEA174E25FA0CF51C43230CB5FBFEF928
:10C520001FFA87F80EFB195543EA054509FB08FA7F
:10C53000AA4502FA01F200FA01F308D97D1909F1BE
:10C54000FF3047D2AA4545D9A9F102093D44A5EBE0
:10C550000A05A4B2B5FBFEF00EFB105544EA0544F3
:10C5600000FB08F8A04507D93C1900F1FF352DD292
:10C57000A0452BD902383C4440EA0940A4EB08040A
:10C58000A0FB02894C45C6464D4619D316D05EB174
:10C59000B3EB0E0264EB050404FA0CFCCA404CEA4F
:10C5A0000202CC40C6E900240021BDE8F0873146F4
:10C5B00030460EE7AC46EDE6184601E74345E6D2C5
:10C5C000B8EB020E69EB07050138E0E72846D3E730
:10C5D00060468FE78146BAE7614677E708464BE752
:10C5E000ACF1020C3D4415E702383C4426E700BF9D
:10C5F000704700BF08B502F001F8BDE808400249E5
:10C60000024805F08BBE00BFC0580100D45801009D
:10C610002DE9F0430546079810B91060BDE8F08396
:10C620000324B0FBF4F404EB4407B84218BF013410
:10C63000B4F1804F05D34FF0FF3313606FF00B0060
:10C64000ECE7A40001348C4200D80DB91460F5E782
:10C65000DFF8BCE02E460024BC4231469C4606F181
:10C66000040603F103032CD3844225D29CF8006016
:10C67000274F0134844238BF9CF801304FEAA60CA2
:10C6800028BF002317F80CC081F800C0844207EBD4
:10C69000131C3CBF9B0003F03C034FEA061606F058
:10C6A000300638BFFB5C1CF806604E7028BF3D2387
:10C6B0008B703D23CB7004314D1B0020156008703A
:10C6C000ACE713F803CC13F8021C13F8018C4FEA03
:10C6D000AC094FEA0C1C1EF8099006F8049C0CF0FB
:10C6E000300C0EEB1119890019F80CC006F803CCB8
:10C6F00001F03C010EEB981C08F03F081CF80110FB
:10C7000006F8021C1EF8081006F8011C0334A3E703
:10C71000635901002DE9F0434FF0000C079EDFF84C
:10C720002881074665466046B5420AD32E4604E096
:10C730000135AE420EF1010E05D1A8BB1060BDE877
:10C74000F0834FF0000E5C5D202CF1D0AE42F4D0AF
:10C75000A6EB0509B9F1010F15D90D2C13D103EB87
:10C76000050999F80190B9F10A0F1BD0BEF1000F2D
:10C7700006D13D2C09D10CF1010CBCF1020F07D9F7
:10C780006FF01500DBE70A2CEFE714F0800FF7D10C
:10C7900018F804407F2CF3D03F2C02D8BCF1000FD6
:10C7A000EED101300135BFE7062500F007046C43E8
:10C7B00004F1070EC4086C43A4EB0C0404EBDE0484
:10C7C00087B18C420ED80025DFF87CE0DFF87C8052
:10C7D0001E443946032428469E4207D1C91B1160D6
:10C7E0000020ACE714606FF00B00A8E713F8019B82
:10C7F000A9F10A0C5FFA8CFCBCF1160F04D828FAD8
:10C800000CFC1CF0010FE7D11EF809C00130BCF18F
:10C81000400F08BF013C0CF03F0C04284CEA851582
:10C82000DAD17CB1280C012C087002D10131002032
:10C83000D2E7022C4FEA1520487016BF8D700231E6
:10C840000331F4E72046C7E7E35801000900400040
:10C850000B6801330B60014B1B6818470000002078
:10C86000014B1860704700BF0000002007B50B4661
:10C87000002102460191034801A900F0EBF803B042
:10C880005DF804FB51C800002DE9F84FB0F818908E
:10C8900019F00808044693460DD001290CBF49F051
:10C8A000100949F02009A0F818908BF31188BFF304
:10C8B0006F8FBDE8F88F09F00709022907D12046DC
:10C8C00005F039FD0028F0D00128238B50D167698D
:10C8D000218B002F15DA256821F00701C4E90088B3
:10C8E00041F0010121830026218B01F0070ACA458E
:10C8F00002D0A368002B5CD10DB9002E74D00023A8
:10C9000058E001F007035A1F012A20D821F007013F
:10C91000062B256889B2C4E900880CD1002D2B466E
:10C9200038BF00232BB1628B1B6801326283002B5E
:10C93000F8D141F002012183204605F0FCFC0646B7
:10C940000028D1D0238B43F020032383CBE7042B93
:10C950000CD121F0070189B22183204605F0EBFCC0
:10C9600005460028BFD041F0200121830025BAE709
:10C97000032809D1226923F00703166843F0060350
:10C98000238300252F46AFE7042806D1226923F030
:10C990000703566843F00403F2E7052806D122692D
:10C9A00023F00703966843F00503E9E700252E46C8
:10C9B000E8E7012341F0080121838BF31188BFF3DD
:10C9C0006F8F03BB002D33D116B121492046B047EC
:10C9D0004FF02003EFF3118B83F31288BFF36F8FB7
:10C9E000238B23F008032383238BDA0628D523F037
:10C9F000100323830121B4F8189009F007090029D6
:10CA00007FF45BAF51E7A1680029DBD00B68D1F858
:10CA100004B0002B38BF0023994652463B462046BF
:10CA2000D847B9F1000FCDD0D9F800304946EEE72C
:10CA300029463B46524620462D6805F098FCC1E742
:10CA400013F020011EBF23F0200323830221D2E72D
:10CA50009B2301002DE9F04F91B08B460290924646
:10CA60001C4600259AF8000008B928465EE32528F0
:10CA70000AF1010707D0029B594698470028C0F2E7
:10CA80005583013510E2182200210AA806F00BF99F
:10CA90009AF80130252B78D0002294461646964607
:10CAA0001046394617F8013B2B2B00F09D8000F211
:10CAB0009480202B00F09B80232B00F09A8028B1DB
:10CAC0009DF8300040F004008DF83000BEF1000FFA
:10CAD00005D09DF8300040F008008DF830002EB1F0
:10CAE0009DF8300040F010008DF83000BCF1000FD0
:10CAF00005D09DF8300040F020008DF830002AB1BC
:10CB00009DF8302042F040028DF830209DF8302012
:10CB100002F04400442803D16FF386128DF83020D0
:10CB20009DF830202A2B42F080028DF830207BD1F6
:10CB30009DF8312042F001024B1C8DF831201A780B
:10CB40002E2A9DF831200CBF0121002161F3410202
:10CB50008DF8312074D15A782A2A6AD00133002105
:10CB60000A26184610F8012BA2F13007092F40F2CF
:10CB70008E809DF830200E91C2F3400040EAD171C2
:10CB800061F341028DF830205AE00AF102078DF876
:10CB900033309DF83130D90740F1498154F8049B76
:10CBA000B9F1000F07DA9DF8302042F004028DF849
:10CBB0003020C9F100095A0740F1428154F8048B32
:10CBC000B8F1000F80F241819DF831306FF34103DD
:10CBD0008DF831304FF0FF3837E12D2B0CD0302B52
:10CBE0007FF46DAF01225CE74FF0010E59E701269B
:10CBF00057E74FF0010C54E7012052E70CFB02020B
:10CC0000303A33461E4616F8010BA0F13007092FC3
:10CC1000F4D9994293D09DF830100D92D20F62F35F
:10CC200041018DF830108AE70B4600224FF00A0CC4
:10CC3000E8E79DF8312042F004028DF831200233FC
:10CC40001F4617F8012B6C2A41D025D8682A2BD013
:10CC50006A2A46D04C2A4CD01F4617F8012B9DF863
:10CC600031308DF83320782A00F2D980572A4DD8F8
:10CC7000412A03D0453A022A00F2D1809DF8323091
:10CC8000042262F302038DF8323001239EE006FB9A
:10CC900001213039034664E7742A26D07A2ADBD191
:10CCA0009DF8313006220DE05A78682A9DF831202F
:10CCB00006D1012161F3C6028DF831209F1CCCE71B
:10CCC0001346022262F3C6038DF83130C5E75A7865
:10CCD0006C2A9DF8312001D10421EBE71346032291
:10CCE000F0E79DF831300522ECE79DF8313007225E
:10CCF000E8E7BDF8303023F4F04323F0020343F4B7
:10CD0000804343F00203ADF83030A6E7A2F15801AA
:10CD1000202900F2848001A050F821F0E1CD00002C
:10CD20001FCE00001FCE00001FCE00001FCE00004F
:10CD30001FCE00001FCE00001FCE00001FCE00003F
:10CD40007DCC00001FCE0000E1CD0000A1CD000091
:10CD50007DCC00007DCC00007DCC00001FCE00000B
:10CD6000A1CD00001FCE00001FCE00001FCE00008E
:10CD70001FCE0000E9CD0000E1CD000005CE00008F
:10CD80001FCE00001FCE000005CE00001FCE000009
:10CD9000E1CD00001FCE00001FCE0000E1CD00005D
:10CDA0009DF83210012003F0780360F30201402B5C
:10CDB0008DF8321002BF9DF8301041F001018DF85E
:10CDC0003010632A31D1003B18BF01239DF8302079
:10CDD000C2F340010B4363F341028DF83020D8E6E3
:10CDE0009DF832100220DEE79DF8322003F0780330
:10CDF000A3F14000032161F3020243428DF8322087
:10CE00004341E3E79DF83220032113F0780F61F3EB
:10CE100002028DF8322014BF01230023D6E79DF8CB
:10CE2000303043F001038DF830300023CEE79DF918
:10CE30003020002AB4BFDDF834904FF0FF39BAE655
:10CE40009B077FF5C7AEDDF838809DF831200023C1
:10CE5000CDE90D339DF8323003F00703012BC2F307
:10CE6000C30236D1D31E042B20D8DFE803F003071A
:10CE7000071F1F0054F8040BC11704E0073424F007
:10CE80000704F4E80201CDE90A019DF8303013F0FF
:10CE9000030654D002983B465246594605F010FD11
:10CEA0000028C0F243810544BA46DBE554F8040B80
:10CEB000012A4FEAE071CDE90A0105D19DF8283039
:10CEC0000A9300230B93E0E7022ADED1BDF9280084
:10CED000D2E7022B23D1D31E042B13D8DFE803F0B3
:10CEE000030A0A12120020680A900021231D0B91E8
:10CEF0001C46CAE7073424F00703F3E80201CDE932
:10CF00000A01F5E754F8043B0A93012A4FF00003A5
:10CF10000B93D3D0022AB8D1BDF82830D0E7042B28
:10CF200007D1073424F00704F4E80201CDE90A012F
:10CF3000ABE7032B04BF54F8043B0A93A5E79DF825
:10CF400033007828B0D8622822D825283FF493AD42
:10CF50005828A9D10DF126030093DDE90A0104AB9D
:10CF60000CAA05F062FC8246B8F1000F0DF1260014
:10CF70000CDB9DF83020A0EB0A036FF38612984576
:10CF80008DF8302002D9A8EB03030D9380463DE0D5
:10CF90006338152888D801A151F820F01DD0000071
:10CFA00081D00000A9CE0000A9CE0000A9CE0000CB
:10CFB000A9CE000081D00000A9CE0000A9CE0000BB
:10CFC000A9CE0000A9CE0000DFD00000ADD0000047
:10CFD000B1D00000A9CE0000A9CE0000F5CF00001E
:10CFE000A9CE0000ADD00000A9CE0000A9CE00005F
:10CFF000ADD00000B8F1000FDDF828A00ADB4146F3
:10D00000504605F020FE0AEB00080026BAF1000F9A
:10D010000CD149E7504605F00FFEF4E70A9B8DF866
:10D02000103000260DF111080DF1100AA8EB0A03CB
:10D0300006B101339DF83220D0066BD5023352067B
:10D040000D9948BF0E9A0B4448BF9B18B9F1000FC9
:10D0500079DD9DF83020A9EB0309C2F38003039327
:10D06000530770D4500664D546B1029B59463046EA
:10D07000984700285ADB039B01351E46302359E0B0
:10D080001E0711D413F0100618BF2026DDE90A236D
:10D09000002A73F10001BFF65DAF524263EB430318
:10D0A000CDE90A232D2655E72B26EFE7002651E789
:10D0B0000A9848B30DF1260300930CAA04AB002193
:10D0C00005F0B3FBBDF8323003F0EF0343F4F04357
:10D0D00043F010038246ADF83230002644E70A9B45
:10D0E000072A3FF6E1AEDFE802F00D04060D08085E
:10D0F0000D0D1D70D8E61D80D6E62846E917C3E958
:10D100000001D1E61D60CFE6DFF8C4800646A8F135
:10D11000050A8BE7110748BF013390E718460393D0
:10D120005946029B98470028039B04DA11B0BDE8DA
:10D13000F08F20234D444A46002AA5EB090109F14E
:10D14000FF39EBDC0D4636B1029B59463046984715
:10D150000028EBDB01359DF83230D90601D41A07DF
:10D1600006D5029B5946302098470028DEDB013562
:10D170009DF83230DB0607D59DF83300029B5946F7
:10D1800098470028D2DB01350D9E2E44731B002BDF
:10D1900016DC029843465246594605F091FB00289A
:10D1A000C4DB0544A944A9EB0503002B7FF77CAE43
:10D1B000029B5946202098470028B7DB0135F2E74B
:10D1C000029B5946302098470028AFDB0135DDE748
:10D1D000A859010008B54FF02002EFF3118382F344
:10D1E0001288BFF36F8F00F005FE034805F096F834
:10D1F00000F04AFAFCE700BFA95901000C4B1B687C
:10D2000070B573B10B4A15680022AA4202DB6FF0B9
:10D21000010070BD1C4613F8106B864204D0013229
:10D22000F3E76FF00C00F4E70C600020F1E700BFBB
:10D2300004000020285601002DE9F7430D46DDE9E2
:10D240000A8691461F46044620B96FF00D0003B0D0
:10D25000BDE8F0830029F8D0002AF6D0009300231F
:10D260000193084605F00AFCB7FBF0F303FB1070CE
:10D270000028EAD112496A46284606F04AFE019B78
:10D28000002BE2D006EB08029342DED3284605F0DD
:10D29000F5FBB8FBF0F303FB10800028D5D1C4E9FF
:10D2A0000097E5602061A060C4F8148016B9019E63
:10D2B000A6EB08060C9BA661E3610020C7E700BF50
:10D2C000892A01002DE9F84305464FF02003EFF3CA
:10D2D000118683F31288BFF36F8F104B1C68002CEC
:10D2E00038BF00249CB10E4FDFF838804FF00C0996
:10D2F000D4E90132002D08BF13462BB198F8142051
:10D3000009FB02F2B85C98472468002CF0D186F340
:10D310001188BFF36F8FBDE8F88300BF10040020B1
:10D320001C040020600D002000F01F0301229A4021
:10D330000A4BBFF35B8F400903EB800050E8003FCE
:10D3400043EA020140E8001CBCF1000FF6D1BFF334
:10D350005B8F1A4214BF0120002070472804002070
:10D3600030B51D4B1D7DBFF35B8F05F01F03012200
:10D370009A401A4B690985B0D04303EB810353E807
:10D38000001F01EA000443E8004CBCF1000FF6D195
:10D39000BFF35B8F114217D0114C0C2202FB0542E8
:10D3A00007CA01AB83E807000E4A7AB193E8070089
:10D3B00005F098FC0020FFF785FF0C236B4300224B
:10D3C000E118E250C1E9012205B030BD82F31188B5
:10D3D000BFF36F8FEEE700BF600D00201804002040
:10D3E0001C040020E52C01002DE9F041374BDFF84B
:10D3F000F4801C7D88B007462046FFF795FF60B992
:10D400006E463A462146304605F0F2FB96E80700A4
:10D410000C2505FB048585E807000C23634308EB16
:10D42000030218F80300650904F01F06C8B37B1C4B
:10D430000FD0D2F808E02648264A4FF4004C0021CD
:10D440000023ECFB0E01FEF75BFF0121381A07F009
:10D4500002FF04F053F80120FFF734FFBFF35B8FA6
:10D460001D4B0122B24003EB850353E8001F11431B
:10D4700043E800100028F8D1BFF35B8F0C2303FBB7
:10D48000048494E8070005AB83E80700134A1AB147
:10D4900093E8070005F013FCFFF762FF04F008FAB9
:10D4A00001200F4ABFF35B8F0123B340DB4302EB44
:10D4B000850555E8002F1A4045E800210029F8D1DC
:10D4C000BFF35B8F08B0BDE8F08100BF600D0020A6
:10D4D0003F420F0040420F0018040020BF2C010003
:10D4E000280400201C040020014804F037BD00BFC0
:10D4F0002C56010008B5D0B14368042B11D100228D
:10D500000368BFF35B8F53E8001F012903D143E891
:10D5100000200028F7D1BFF35B8F074808BF1046F3
:10D5200008BD3BB1006803F09FFD0020F8E76FF4F1
:10D53000E040F5E70148F3E7E98FFFFFEA8FFFFFDF
:10D5400010B5044618B90D4B0D485B6898476168E3
:10D5500008290DD031F004030AD011F0020108D0DF
:10D560000848214607F02CFC002323600023636059
:10D5700010BD2068142205F096FBF7E72C0100206F
:10D58000E55901002C04002010B5044618B9164BCB
:10D5900016485B6898476368042B23D0082B21D07A
:10D5A000CBB92368BBB912484FF0FF324FF0FF33BD
:10D5B000214603F0D9FB08B923681BB90A4B0D4873
:10D5C0005B68984720681422002105F06CFB6368B3
:10D5D00043F002036360206807F02DFC636843F0AA
:10D5E0000103636010BD00BF2C010020E55901005C
:10D5F0002C0400200B5A010008B508B34368042B23
:10D6000010D101220368BFF35B8F53E8001F00298C
:10D6100003D143E800200028F7D1BFF35B8F0BD183
:10D62000002008BD53B100684FF0FF324FF0FF33C8
:10D6300003F09CFC0028F3D00348F2E70348F0E72E
:10D640006FF4E040EDE700BFE98FFFFFEA8FFFFFD7
:10D6500008B5064906484023142207F096FBBDE8AA
:10D6600008400449044804F0DBBC00BF4804002023
:10D670002C040020445601003456010001491022B8
:10D680000A60704710ED00E072B6404080F31188E8
:10D69000BFF36F8FBFF34F8F30BF62B6BFF36F8F93
:10D6A000704700BF72B6494081F3118820BF80F3F4
:10D6B000118862B6704700BF43B2002B08DB01221D
:10D6C00000F01F0002FA00F05B09024A42F8230052
:10D6D000704700BF00E100E0054B420900F01F0069
:10D6E00053F82220012303FA00F01040704700BFD6
:10D6F00000E100E043B2002BA8BF03F1604301F159
:10D700000101B8BF064B4FEA4111ACBF03F56143BD
:10D7100000F00F00C9B2B4BF195483F8001370476A
:10D7200014ED00E030BFFFF7FDBF00BF0B4A08B5A6
:10D730000B4B22F07F029A60BFF34F8FBFF36F8FC6
:10D74000D3F8882022F47002C3F8882003F05CFA32
:10D7500004F0F8F900F0D0F903F060FA00C200001C
:10D7600000ED00E0094A0A49936809689967094988
:10D7700058674B6843F080534B60002383F3118854
:10D78000BFF36F8F9368986F704700BF600D0020E4
:10D790003458010000ED00E012498A684FF0300073
:10D7A0001044EFF3098C80E8F01F202080F31288EA
:10D7B000BFF36F8F0C4F4FF00066CA698A603E60FE
:10D7C000506F0023536780F3118804B5104600F0B2
:10D7D00029FABDE8044002F1300090E8F01F8CF314
:10D7E00009887047600D002004ED00E01EF0040F72
:10D7F0000CBFEFF30880EFF30980816911F8021C78
:10D800000229FFD001B505F0FEF901BD42F8203C28
:10D81000009B42F81C3C0A49019B42F8183C029BC1
:10D8200042F8143C21F001014FF0807342F8043CAF
:10D8300042F8081C0023203A02654367704700BF86
:10D840008D2401000B4A0346906890B113F1160F26
:10D85000406E05D0A0F120029A4206D8834204D23D
:10D8600081422CBF0021012100E00021002908BFD6
:10D8700000207047600D002008B5094B98600D46E8
:10D88000144600F0CFF9204685F30988002163B6DD
:10D8900081F31188BFF36F8F0022002304F0F6FD9F
:10D8A000600D002001B572B60B4A906900281EBFBA
:10D8B0000021916107F0B8FA62B6EFF30580A0F19C
:10D8C00010004FEAC0000549014409C99847BDE866
:10D8D0000140034908470000600D00201854010072
:10D8E000E5D80000044B9968D869884203D0034901
:10D8F0004FF080520A607047600D002004ED00E098
:10D9000038B5194B14469A6A9A6A9A6A054690077E
:10D9100019D5586B9A6A120615D519B19A6A22F070
:10D9200080029A629A6A9A6A9A6AD1060ED49B6AAF
:10D930009A070BD400200C4A936A43F0FF039362CA
:10D940000023237038BD6FF01500EBE7064B5B68D2
:10D950001B05EFD52946FFF775FF0028EAD080F3B5
:10D9600009880220E7E700BF00ED00E00D4B9A6A4E
:10D970009A6A9A6A920508D59A6B9A6A120404D533
:10D9800018B19A6A22F400429A62064B9A6A9A6A1D
:10D99000D20558BF9A6A9A6A002042F47F429A627E
:10D9A0000870704700ED00E0074B9A6A9A6A9A6A1D
:10D9B0009A6A9A6A9A6A9A6A6FEA02426FEA12420D
:10D9C0009A620020704700BF00ED00E070B53E4B4A
:10D9D0005B688AB00D46C3F30803002686F31188FE
:10D9E000BFF36F8F02F07F41B1F17F4F11D102F091
:10D9F0000C0108290DD0120701D40546012600228A
:10DA0000033B8DF80720032B57D8DFE803F0044EC3
:10DA1000524B3546F3E72C4BDC6A14F002044CD130
:10DA2000DA6A002A18DBDB6A5B0015D5AB6933F8CC
:10DA3000022C4DF602739A420DD003F1604303F6B7
:10DA400026631B7803B30DF1070201212846FFF777
:10DA500057FF044600E02C689DF8073093B9202258
:10DA6000294602A805F014F9099B46B3C3F308023E
:10DA700022B96FEA53236FEA4323099302A9204690
:10DA800005F0BFF80AB070BD104B1B782BB10DF13B
:10DA900007010120FFF76AFFDBE70D4B1B889BB2F4
:10DAA000002BD9D0FFF780FFD3E70DF1070200214B
:10DAB000CCE70DF107010020ECE70024CCE723F4CC
:10DAC000FF7323F00103D8E700ED00E029ED00E04B
:10DAD0002AED00E0024A536943F010035361704796
:10DAE00000ED00E0EFF30880EFF3098101B5724625
:10DAF000FFF76CFF01BD00BF044800232021C218BE
:10DB00000133302B82F80013F9D1704700E100E0B7
:10DB1000002080F31488BFF36F8F07F0EFFB002025
:10DB20000D490860BFF34F8F0C4880F3088800F060
:10DB300029F8202080F3118809484FF40261401829
:10DB400080F30988EFF314800221084380F31488DE
:10DB5000BFF36F8FFFF7EAFD94ED00E0E0170020C0
:10DB600060190020064A11680023C1F307211846F6
:10DB70008B4200D17047936010610133F8E700BF1A
:10DB800090ED00E008B572B6002383F31388FFF729
:10DB9000E9FF144B4FF0FF32C3F88020C3F8842014
:10DBA000C3F88820C3F88C20C3F89020C3F89420D1
:10DBB000C3F89820C3F89C20C3F88021C3F88421BF
:10DBC000C3F88821C3F88C21C3F89021C3F89421AD
:10DBD000C3F89821C3F89C2162B6BFF34F8FBFF3FF
:10DBE0006F8F08BD00E100E0064B9B68834207D1C0
:10DBF000EFF3058323B1044A536843F08053536025
:10DC000003F03CBF600D002000ED00E0024B034A32
:10DC10000348012100F068B8000004200000002043
:10DC200058560100426E054B203A1A60044A2021E2
:10DC3000C3E901121846012100F060B8480900202C
:10DC400000000B15F0B51E4F00268E4201DB10467A
:10DC5000F0BD446884B353B104F1FF3C14EA0C0FE7
:10DC600018D11F2C16D905681CEA050F12D1202CDB
:10DC70000568D0F808C0D2B20FD9B4F1004F0ED861
:10DC8000013CB4FA84F4C4F11F046400072A4CEA8E
:10DC9000040406D96FF01502D9E70824F6E73E24FC
:10DCA000F4E725F01F05154345F0100544F0010485
:10DCB000BA60FD6001323C6101360C30C5E700BF3F
:10DCC00090ED00E0034B05225A60BFF34F8FBFF386
:10DCD0006F8F704790ED00E0BFF35F8F014B002224
:10DCE0005A60704790ED00E010B5034C0123227894
:10DCF000FFF7A8FF207010BDB80D002008B5084A36
:10DD000000231278FFF79EFF10F1160F03D0054B8A
:10DD10000022072800DD08BD98601A610130F8E78D
:10DD2000B80D002090ED00E013490868082810B5F0
:10DD30001ED8FFF7D1FF114C49680022904201F133
:10DD40000C0105D10E4B1870FFF7BCFF002010BD71
:10DD5000A26051F80C3C23F01F03134343F010035F
:10DD6000E36051F8043C43F0010323610132E5E72D
:10DD70004FF0FF30EBE700BF6456010090ED00E08C
:10DD8000B80D0020014B1860704700BF280000202C
:10DD90004FF02003EFF3118183F31288BFF36F8FED
:10DDA0000F4A0123C2F840354FF08042C2F878355F
:10DDB0000C4A1268082A08D10B4A1268052A04D8AE
:10DDC0000A48825C0AB10A4A13604FF0804301227C
:10DDD000C3F8802581F31188BFF36F8F002070474F
:10DDE00000E001403001001034010010475A0100EA
:10DDF000380600404FF08043C0B2C3F81C05BFF3A3
:10DE00004F8F0549054BCA6802F4E0621343CB60AB
:10DE1000BFF34F8F00BFFDE700ED00E00400FA05FF
:10DE200020B1034B800143F001031847704700BF46
:10DE3000C055010002480022002305F0CDBE00BFFE
:10DE400020020020074B0360074B4360074B8360B1
:10DE5000074BC360074B0361074B43618B89C1616B
:10DE600083617047FB2C0100C12D0100932D01003F
:10DE7000612D01003B2D0100112D010000234360A5
:10DE8000014B816003607047F32D0100F0B50D4E2A
:10DE90000D4F91B0044600F11005002200232846E2
:10DEA00005F09FFE014608B911B0F0BD08AB03A80C
:10DEB000CDE903640593CDF818D0079705F06AFC07
:10DEC000EBE700BF945601007F2E01002DE9F041E1
:10DED000DDF8188004461D460F4616460021302204
:10DEE00004F0E1FEC4E90876C4E90A580449204672
:10DEF00007F07BF804F11000BDE8F04107F00EB820
:10DF00008DDE000013B50024064A07490748009437
:10DF10002346FFF7DBFF064801F0BEF8204602B0BB
:10DF200010BD00BF5D2F0100632F01005C090020C0
:10DF300035DF000008B50146034806F0F7FFBDE8ED
:10DF40000840024803F042BA100200202C000020D2
:10DF5000F8B50D4E0D4F00220023304603F0CAF8ED
:10DF6000044600B9F8BDD4F88420211D384605F0D8
:10DF70007EFD0546204601F003F8002DEBD0044855
:10DF8000294604F0E1FFE6E71002002054090020D2
:10DF90005C0900202DE9F041124C0E4617469846C8
:10DFA000054680B12068D0F81432D0F80C22134412
:10DFB000AB4213D143463A46314604F098FC003850
:10DFC00018BF01200BE023680BB9074B2360074BF8
:10DFD0002068197804F09DFC0028E3D00120BDE8FA
:10DFE000F08100BF8C09002090090020B40B0020B4
:10DFF0007FB50C4600283DD1204B69461878FFF7C5
:10E00000FDF8002838D1009804F02CFD009B5B68D7
:10E01000013B0646191901AA05F077FF014630B108
:10E020000124009804F096FC204604B070BDDDE9A0
:10E030000005029A15444268AD1A2A4604F0DAFC3B
:10E0400004460028ECD1009B99682039A942E8D306
:10E050005B68194401AA304605F057FF0098019902
:10E0600043688268C91A521A04F0C4FC041E18BF1F
:10E070000124D6E70324D7E70124D5E7B40B002019
:10E080007FB50C460546002116462046182204F0AE
:10E090000AFED5E902014B1C08BFB0F1FF3F03D1D6
:10E0A0000023336003201EE050EA01036ED1AB6908
:10E0B0001F2BF5D9D5E90423591C08BFB2F1FF3F46
:10E0C000EED0C4E900232A6A414B9A42E8D1EA69BA
:10E0D000202AE7D84AB905F08DF90028E06014DA63
:10E0E00000233360052004B070BD3A480368013353
:10E0F000F1D0037B9A42EED105F508710D3004F0A2
:10E10000B7FD0028E7D10020EDE795F84032E3B1F4
:10E1100002A805F024FA08B10120E4E79DF80820E0
:10E1200095F834309A4210D30BD89DF8092095F811
:10E1300035309A4209D304D8BDF80A20EB8E9A42B2
:10E1400003D3002333600620CDE7207B0DF10301CC
:10E1500005F007F90028DFD19DF8033083F00103B3
:10E160006374D5E90223A969A1605218D4E90001BA
:10E1700043F100038B4208BF824226D2207B01A9D3
:10E18000FFF73CF880B100233360C5E7114B1A68F4
:10E19000E2609A682260002262605A680023994215
:10E1A00008BF9042AFD1DCE70198AD6904F051FCA3
:10E1B000B5FBF0F303FB1055019804F0CBFB15F011
:10E1C000FF051EBFA068451BA560012323749AE7C5
:10E1D0003DB8F396B40B002038B50E49054605F05E
:10E1E00094F9002200230446284606F057FA0A490B
:10E1F0000443284605F089F9084B04435A68284629
:10E20000002306F04BFA54EA000314BF022000205A
:10E2100038BD00BF4D5A0100505A0100B40B002018
:10E220002DE9F0438BB00C460DF10301064617466D
:10E230001D4605F048F9014608B1012049E02023B8
:10E2400002AA304605F014F90028F6D12CB19DF849
:10E2500003100822204604F026FD02993A4B994209
:10E260003AD124B1082207A9204604F011FD0DB1CE
:10E27000069B2B600599BDF8104004230C440DEB60
:10E2800003022146304605F0F3F840B9BDF80420FA
:10E2900046F608139A4204BFBDF80630E41804237A
:10E2A0000DEB03022146304605F0E2F80546002852
:10E2B000C3D1BDF8042046F607139A42BDD1BDF87C
:10E2C00006800434A04404F10409C14510D985F046
:10E2D00001000BB0BDE8F0839DF80320130443EA6E
:10E2E0000263134343EA02239942A6D10520F0E7D3
:10E2F00004230DEB03022146304605F0B9F800284F
:10E300009BD19DF80420BDF80630FF2A08D14FF6B6
:10E31000FF72934291D0043303EB04094C46D2E7D9
:10E32000102AF8D1202BF6D1002D86D157B12434F4
:10E33000444582D83A464946304605F099F80028C7
:10E340007FF47BAF0125E9E73DB8F396034B1B68EB
:10E3500013B15B6803B11847704700BFE40B00209E
:10E3600073B5002304461A4669460120FFF758FF9B
:10E37000B0B105F04FF8054608B9FFF7E7FF0C49C3
:10E38000204605F0C2F8EB1706462A46204606F05E
:10E3900085F956EA00030CBF0020022002B070BDD0
:10E3A000012005F01EF90028E3D00620F6E700BFA3
:10E3B0004D5A0100034B1B6813B11B6803B118478A
:10E3C000704700BFE40B0020034B1B6813B19B6830
:10E3D00003B11847704700BFE40B00202DE9F0435C
:10E3E000ADF5777D64AE07464FF4127200213046DA
:10E3F00004F059FC4FF0FF334FF0FF32C6E902231F
:10E40000C6E9042300214FF4A87210A804F04BFCC5
:10E410006C4B109301236C498DF86C308DF8CC3027
:10E420008DF8FC30694B1C9140936AA96BAB1F912E
:10E4300043934FF40071202326914A936449654B1E
:10E4400028914C9368A9052302222A918DF8343132
:10E4500061498DF84420F4AB03240DF5D8788DF88C
:10E46000A42034918DF8D4200DF56C7966AA4E93D2
:10E4700010A9002307F11C0012968DF87440CDF806
:10E48000788036928DF80441CDF80891019304F01C
:10E4900064FF48B901AA02A93046FFF7F1FD05461D
:10E4A00038B1FFF753FF2C4620460DF5777DBDE8C8
:10E4B000F0839DF8183023B93846FFF78DFE0446E7
:10E4C000F2E7464B1B68CBB1454A02991268B06827
:10E4D0009847044690B10195D6E9022313435AD1D7
:10E4E000204605F00AF801226B461146022000F092
:10E4F000D9F9002CE0D0FFF729FFD5E7394D059B6E
:10E500002B60029BAB60D6E90223134320D1002489
:10E510006C60FFF74FFFF2692A73494605F10D0061
:10E52000009404F0B5FBF26902F10D002146C2F13E
:10E530002002284404F0B7FB9DF8193053B131692B
:10E540002046FFF755FD28B1002301930124C3E7BE
:10E5500001230093B3690BB90024BDE76A68B06872
:10E560001344AA689A1A534253414146049AFFF74A
:10E5700011FD04460028E7D16B68049A1344AA6889
:10E580006B609342E8D1FFF71FFF022300934FF027
:10E59000FF332B60A0E7134BD3E901239A4201D04C
:10E5A000002CA0D008AD002319462A460120FFF711
:10E5B00037FE00280CBF29460021204604F09FFFAB
:10E5C00091E700BF545A01005A5A0100635A0100F2
:10E5D0005F5A0100675A0100505A0100EC0B0020FD
:10E5E000E80B0020B40B0020034B1B6813B1DB6861
:10E5F00003B11847704700BFE40B0020014800F04A
:10E6000015B900BF3C0000202DE9F04F5A495B4F7F
:10E61000DFF884A1DFF884B19DB0064604F0A5FFC1
:10E620004FF0FF32044605A9304606F078F84FF067
:10E63000000804434FF0000902AB14AA03A94046A6
:10E64000FFF7EEFD002874D1404604F09BFF4FF029
:10E65000FF32054609A905A806F064F8394601907D
:10E6600009A804F082FF019B184342464B4604432D
:10E6700009A806F013F85146044309A804F075FFF1
:10E680000DA9044303A804F0F2FF0DA909A804F0A2
:10E690006CFF5946044309A804F067FF2022044395
:10E6A00014A909A806F019F83549044309A804F08B
:10E6B0005CFF029981F01001C1F300110443143191
:10E6C00009A805F0F9FF2F49044309A804F04DFFFC
:10E6D00005F001010443143109A805F0EDFF2A49B2
:10E6E000044309A804F041FFC5F340010443143179
:10E6F00009A805F0E1FF2549044309A804F035FF06
:10E70000C5F380010443143109A805F0D5FF204961
:10E71000044309A804F029FFC5F3C00104431431E0
:10E7200009A805F0C9FF09A9044305A806F009F8DE
:10E730000443B9F1000F08BFB8F1010F17D105A9C3
:10E74000304605F0FEFF13490546304604F00DFF44
:10E750002C43044300230022304605F09FFF54EA77
:10E76000000314BF022000201DB0BDE8F08F4FF061
:10E7700001084FF000095FE76F5A0100765A010067
:10E78000885A0100915A0100995A0100A35A0100C8
:10E79000AA5A0100B45A01007B5A0100835A0100B1
:10E7A00030B5B1B004468C2200210DA804F07BFAEC
:10E7B0001C4B0C9303238DF8343002AB0F932123B1
:10E7C0001693194B189305238DF864300DF1070348
:10E7D0001A930CA9002303AD04F11C000E950293BB
:10E7E00004F0BBFD014610B1032031B030BD029BE7
:10E7F0005BB99DF80730002BF6D004F025FF002808
:10E80000F3D12046FFF700FFEFE7284604F08AFE29
:10E810000028E9DB9DF8071001D10029EDD104F0B3
:10E82000EAFEECE7835A0100C05A0100034B1A6864
:10E8300002B9034A10601860704700BFF80B00204F
:10E84000F40B00200B4B1B6830B50246CC000BB913
:10E85000002030BD588990420AD118898842F7D9E2
:10E860005D6828192D59002DF3D14568002DF0D190
:10E870001B68ECE7F40B002070B5044608480D4611
:10E8800004F0DAF906490246204605F037FF30B9B0
:10E890002A46EB172046BDE8704005F0FFBE70BD6C
:10E8A0004D5A010010B4044C246814B1A44610BCA5
:10E8B000604710BC704700BFF00B00202DE9F74FF8
:10E8C000DDE90C890C1E154640F606121E464FF077
:10E8D000020141F2044318BF13460746ADF8023067
:10E8E0004A460DEB0100C04700285AD12CB3022242
:10E8F000AB1C5BBA0DEB020101A8ADF8023004F0CD
:10E90000C7F93B788DF8063042464B46032101A8F3
:10E9100005F093F8002844D15A230124A5EB040AFA
:10E920009A45A8BF9A4623445B1B012B07D80AF1DE
:10E93000FF3A4FF0000BA24414E05D23EEE7CCBF9A
:10E940004FF0010B4FF0000BF5E70322391901A836
:10E9500004F09EF94B464246032101A805F06DF8EC
:10E96000F8B90334AAEB0402022A2346EDDCBBF11A
:10E97000000F0FD02D1B012D16D0022D21D04DB927
:10E9800076BAADF804604B464246022101A805F074
:10E9900054F830B917484A460121C04708B90E9BC0
:10E9A0001C6003B0BDE8F08FFB5C8DF80430330AC7
:10E9B0008DF8053001348DF806604B464246032140
:10E9C000E4E73B5D8DF80430274442467B788DF8C0
:10E9D0000530330A8DF8063003214B4601A805F0B7
:10E9E0002CF80028DDD102348DF804604B464246F5
:10E9F0000121CBE7555B0100024B242202FB0030D2
:10EA0000704700BF200200208379064A242101FBC1
:10EA100003231A6A1B7D1733801A23F00303B0FB0C
:10EA2000F3F070472002002010B50A4A83792424AD
:10EA300004FB03230A68DB695C6823689A4294BF7D
:10EA40000A600B60FFF7E0FFD4E9002302FB00300F
:10EA500010BD00BF200200202DE9F34705460191BB
:10EA60001046194616461F4606F017FC8046894692
:10EA70004FF02003EFF3118A83F31288BFF36F8FF7
:10EA80006B8A002B5AD02A8A9A423ED90022002350
:10EA9000284602F02FFB0446002836D08AF311885E
:10EAA000BFF36F8F019B002B58D056EA070310D09D
:10EAB0007B1C08BFB6F1FF3F0BD003F0A1F9B8EB08
:10EAC000000669EB0107002E77F10003BCBF0026AA
:10EAD0000027A379DFF89C80242202FB038301A98D
:10EAE000DB691B6832461D6820463B46A847054641
:10EAF0002061002833D1A07900EBC000214608EB4B
:10EB0000800006F01EFA2C4624E06B8A5A1E6A82A8
:10EB10008AF31188BFF36F8F2A7D2C8A02F11700C8
:10EB2000E41A2B6A20F0030004FB00341148124B56
:10EB3000E2712D1AAD105D43A571B3E78AF3118818
:10EB4000BFF36F8F32463B46284602F0D3FA0446A5
:10EB50000028A7D1204602B0BDE8F087236100233A
:10EB600001222360A280A381019A2369E281A3602C
:10EB7000F0E700BF20020020398EE3382DE9F04194
:10EB8000174D0446002624270CB9BDE8F0812379EF
:10EB9000D4F80080013BDBB22371002BF5D1216951
:10EBA00059B163799B0707D4A37907FB0353204628
:10EBB000DB691B689B6898472661A079A66007FB04
:10EBC000005326609B691BB1204698474446DBE70B
:10EBD00000EBC000214605EB800006F0B2F9F5E736
:10EBE000200200200E4A70B5841AA3100D4C5C431D
:10EBF0000546E4B20C2000FB04200E4640210844E8
:10EC000005F047F8011E05DB074B03EBC4046368FE
:10EC10009847002128463346BDE87040184700BF9A
:10EC20000C0C0020B76DDBB6045701002DE9F04154
:10EC3000104E841BA310104C5C43E4B20C256543BA
:10EC4000804605F140000F463044402105F03AF877
:10EC5000011E09DB094A7319C3E90E27084B53F853
:10EC60003430BDE8F041184740463B46BDE8F0412E
:10EC7000184700BF0C0C0020B76DDBB6273D010024
:10EC800004570100002270B5012104461046FEF72A
:10EC900031FD0020FEF710FD0F4801F09DFA0F4BEB
:10ECA000984215D105F013FC26690D49304603F052
:10ECB00091FB00280BDB012535642469084904F128
:10ECC0001C0003F087FB002801DBE564002070BD19
:10ECD0006FF00400FBE700BF19ED00000000AD0B72
:10ECE0001457010001460C2309484B4370B5C41862
:10ECF000D4E90E5600224033A263184405F000F810
:10ED00002DB132462B460348BDE87040184770BD10
:10ED10000C0C00208853010010B1012804D070476A
:10ED2000034B1B6C5B0701D1FFF7DCBF704700BFD3
:10ED30000C0C002008B54FF02003EFF3118183F392
:10ED40001288BFF36F8F124A136843F0020013F06A
:10ED5000010310600CD04FF08042D2F80C34D2F88E
:10ED60000C2413F0010303D00A4804F0C9FF012367
:10ED700081F31188BFF36F8F23B1BDE808400020F5
:10ED8000FFF7B0BFBDE80840012001F035BA00BF71
:10ED90005C0C00204C0C0020094BBFF35B8F53E848
:10EDA000002F22F0020143E800100028F7D1BFF342
:10EDB0005B8FD30702D4012001F050BA704700BF27
:10EDC0005C0C00201FB500220123CDE90223094A73
:10EDD000CDF800D06B46CDF804D004F0CAFF00286F
:10EDE00005DB4FF480420023684602F0D7F905B0F6
:10EDF0005DF804FB453D01002DE9F8433A49BFF3B6
:10EE00005B8F0646012251E8003F41E800200028C0
:10EE1000F9D1BFF35B8F33B9344935484B60CB60D0
:10EE20008A6003F0EAFA731E012B32D8012E07D153
:10EE30004FF08043D3F81C3403F00303012B28D098
:10EE400005F0E7FF044618B92A4B1B78002B44D184
:10EE50004FF02003EFF3118583F31288BFF36F8F18
:10EE60000124254FDFF89480DFF894904FF0804222
:10EE7000D2F81834D2F81824D2030CD503F00303C7
:10EE8000012B01D0012E06D10CB385F31188BFF3FD
:10EE90006F8FBDE8F883ACB12846FEF703FC4FF056
:10EEA0008042D2F81835002BE0D139680029DDD036
:10EEB0003B603B680123C2F81835C8F88031C9F8B7
:10EEC0000030D3E70021212002F0A8FDE7E74FF052
:10EED00080430222C3F80423DBE74FF08043022281
:10EEE000C3F808230546BCE7600C0020FC0B00209B
:10EEF000280C00200B1200200401004000E100E07B
:10EF00000800004008B5084B0848186005F0ACFE42
:10EF100038B10748FEF736FF0548FDF7A1FC002091
:10EF200008BD6FF01200FBE7640C0020E8530100FD
:10EF300035EF00000A2838B5074D044604D128688B
:10EF400083680D215B68984728688368E1B25B6835
:10EF50009847204638BD00BF640C002070B5074EAE
:10EF600004464518AC4201D1002070BD306814F849
:10EF7000011B83685B689847F4E700BF6C0C0020B6
:10EF800007B5019001A9034805F01AFF03B05DF829
:10EF900004FB00BFA40100202DE9F047364D8AB0E4
:10EFA000364E0DF10809344607E0206883685B6B34
:10EFB0008BB9206883689B698BB9306883685B6C08
:10EFC000002B4CD1206883681B6C002BEDD0984738
:10EFD0000028EAD146E098470028EED0E9E7202251
:10EFE0004946984707460028E7D0254C0026BE42F0
:10EFF000D6DA2B7819F806807BB9D4F800A0BAF1DC
:10F00000000F17D11F480022002301A901F0ACFE18
:10F0100048B1C4F800A001232B70B8F10A0F1CD12D
:10F0200000232B7019E0019B2360C3F884002B7828
:10F03000002BF2D12068D0F884307F2B04D9FFF761
:10F040009FFF00232360E6E75A1C0344B8F10A0F30
:10F05000C0F8842083F8048007D00136C7E79847BA
:10F060000028AFD10AB0BDE8F08700232360064B2B
:10F070001B689847F1E700BFB90D00206C0C002019
:10F08000680C0020A4010020700C0020014A00231D
:10F0900004F04FBD5DEF0000164B13B5164C186021
:10F0A0001648206005F0E0FD10B32468A368DB6A11
:10F0B0000BB120469847A3681B6A0BB120469847BE
:10F0C000A3689B6903B9FEE701220DF10701204601
:10F0D000984702460028F3D1A36823B19B6C13B173
:10F0E000074920469847A3689B6A0BB1204698477A
:10F0F00002B010BD700C00206C0C0020E853010021
:10F1000099EF0000420970B5034602D0012A1DD0D4
:10F1100070BD0F4E326951680029F9D00C6803F0B8
:10F120001F030125002C05FA03F538BF00248A6867
:10F130002A4002D04B6830469847002CE8D023681C
:10F14000002B38BF002321461C46F0E7014EE1E7C3
:10F15000A0530100B853010030B54068047B01F0B2
:10F160001F05B2F5005F45EA441585B04FF0000475
:10F1700004D1284601F012FB002032E0B2F5804FA6
:10F18000CDE902442FD1B3F5003F0CBF0423052382
:10F190008DF80830836823FA01F1C9072FD4B2F53E
:10F1A000A03F2CD16A09012A05F01F031C4A03F570
:10F1B000E07318BF4FF0A04252F82330DB071ED493
:10F1C0000DF107042146284601F054FA154B9842E8
:10F1D00014D1204601F098FA134B98420ED06FF0EC
:10F1E0000B0005B030BDB3F5C02F05D0B3F5003F1F
:10F1F0000CBF02230123CBE70323C9E703940023B9
:10F20000194602AA284601F013F9074B984204D187
:10F210000121284601F07EFAAEE76FF00400E0E736
:10F22000000300500400AD0B0000AD0B10B501F061
:10F230005BFA044668B901F02FFA084B98420AD1EC
:10F240000748214601F010FA224605210620FEF764
:10F2500051FA002010BD6FF00400FBE70000AD0B79
:10F2600005F100002DE9F04347683B7B01F01F05E5
:10F2700085B00E4645EA43151446CAB902A9284688
:10F2800001F0F8F90446284601F0AAFA484B9842E2
:10F2900004D06FF0040005B0BDE8F083844205D1CE
:10F2A0009DF8080001F02AFAA042F2D10020F2E70E
:10F2B0004FF000090DF103013046CDE9029901F04C
:10F2C000D9F94B46804602AA4946284601F0B0F8D3
:10F2D000374B984202D06FF01500DCE7804503D130
:10F2E0009DF8030001F00AFAA3054ED5314B324ACE
:10F2F000234093423AD00CD8062B14D004D893B1B3
:10F30000022BE8D104230EE0B3F5801FE3D10123E3
:10F3100009E02A4A93422BD0B3F5A00F2AD0B3F5C7
:10F32000800FD8D102238DF8043084F48073C3F3A6
:10F330000023E0068DF8053054BFC4F340130323C7
:10F3400021058DF8063017D57B68012101FA06F6F4
:10F35000C3F80865002201A9284601F015F9144BED
:10F36000984214BF6FF01500002094E70723DAE7F6
:10F370000523D8E70323D6E7620541BF7B68012157
:10F3800001FA06F6C3F80C65E4E7E3064FF0000364
:10F3900054BFC4F3401403241A4601A928468DF82B
:10F3A000044001F045F8024B98423FF47FAF92E7EA
:10F3B0000000AD0B0600F000060010000200400047
:10F3C000024B0B6001231360704700BF8C0C0020C0
:10F3D000004870477C57010010B5012211460648CD
:10F3E000064C05F0EFFD05F0DCF8206005F0D5F8DF
:10F3F0006060002010BD00BF940C00208C0C002029
:10F400004FF08042D2F81015D2F8103501F01E01ED
:10F4100023F01F030B4343F00103C2F81035024BE6
:10F4200000221A70704700BFBA0D00204FF08041D3
:10F43000D1F8102512F001001AD0D1F810050D4BAB
:10F4400020F01F0002F01E021043C1F810051868DA
:10F4500058B1D1F8103523F01F03134343F00103D3
:10F46000C1F810356FF08B007047034B01221A7002
:10F47000704700BF08010040BA0D00202DE9F04799
:10F480000E463046194617461C4604F0DFFCC0B352
:10F4900046EA040515F0030533D1CCB11A48DFF86C
:10F4A0007090DFF870A04FF0FF324FF0FF3301F0A3
:10F4B00075FE24F00304AC4206EB05080BD1134A99
:10F4C000D2F80034DB07FBD500240F4801F046FEDC
:10F4D0002046BDE8F087D9F80030082B0AD07959CA
:10F4E000404601F099FA9AF800300BB1FFF788FF17
:10F4F0000435E0E7FFF79AFF0028F0D06FF08B04A7
:10F50000E3E76FF01504E3E7940C002000E001400E
:10F5100030010010BA0D00202DE9F0410E461546CD
:10F5200005F03BF829460746304604F08FFCA0B3AF
:10F53000B6FBF7F307FB13637BBBB5FBF7F307FBE6
:10F54000135454BBBD421ED34FF0FF324FF0FF3374
:10F550001348144FDFF8508001F020FE05F01DF82D
:10F5600004463B68082B11D0304601F035FA98F874
:10F5700000300BB1FFF744FF2D1B2644F1D12C4680
:10F58000074801F0EBFD2046BDE8F081FFF74EFF94
:10F590000028E9D06FF08B04F2E76FF01504F2E772
:10F5A000940C002030010010BA0D0020F0B54B790A
:10F5B000012B26D0032B21D110268B79032B1DD1B3
:10F5C000CC790CB1012C19D10A7912B1022A15D1CA
:10F5D0000E220B684568B3F5164F2D6865D02DD8FF
:10F5E000B3F5165F64D016D8B3F5966F62D00AD81B
:10F5F000B3F5967F61D0B3F5167F61D06FF08500CB
:10F6000052E00026D9E7B3F5166F5CD0B3F5965FEC
:10F61000F4D1374B3CE0B3F5E14F57D007D8B3F501
:10F62000615F55D0B3F5964FE8D1324B30E047F6E5
:10F630001227BB42E2D14FF4000329E0B3F5613F4A
:10F6400048D013D8B3F5963F47D009D84DF6C02718
:10F65000BB4244D0B3F5614FD0D14FF46B0317E0F8
:10F66000B3F5E13FCAD14FF0EB7311E0B3F5612F71
:10F6700038D008D8204FBB4237D0B3F5E12FBDD1E9
:10F680004FF0E86304E01D4FBB42B7D14FF0805309
:10F69000C5F82435036903C9344322430433C5F84C
:10F6A0006C2583E803000020F0BD4FF41D03EFE755
:10F6B000134BEDE74FF49E23EAE74FF4A033E7E75F
:10F6C0004FF41C33E4E74FF41D23E1E70D4BDFE774
:10F6D0000D4BDDE74FF06C73DAE70C4BD8E74FF4D6
:10F6E0006503D5E74FF07063D2E74FF08063CFE753
:10F6F00000B0130000A04E0090D0030040420F0065
:10F700000050270000C0750000F03A0000903A0158
:10F7100000F01F0240090128044B02F5E07218BFF7
:10F720004FF0A043890043F82210704700030050B7
:10F73000F8B5066905460F4605F06BFB10B9204B7E
:10F740001B7883B94FF02003EFF3118483F3128801
:10F75000BFF36F8F284604F075FC28BB84F3118833
:10F76000BFF36F8FEEE76424284604F06BFC70B99A
:10F77000012004F0AAFE013CF6D10021212002F074
:10F780004DF9F0E784F31188BFF36F8FF5E74FF081
:10F790002003EFF3118483F31288BFF36F8F2846A1
:10F7A00004F050FC0028EDD03146012201F8147F0E
:10F7B000284604F0DAFC84F31188BFF36F8FF8BD9C
:10F7C0000B12002000F01F0240090128044B02F533
:10F7D000E07218BF4FF0A043032143F82210704796
:10F7E0000003005000F01F0140090128044B4FF0B6
:10F7F000010218BF4FF0A0438A40C3F808257047A4
:10F80000000300502DE9F041D0F804800769D8F8D2
:10F8100000400023C4F80035386045680646E868B3
:10F82000421C04D0FFF7DEFFE868FFF7CBFF286932
:10F83000431C06D02B7F002B14BF03210021FFF7B0
:10F8400067FF6869421C04D0FFF7CCFF6869FFF7C7
:10F85000B9FFA869431C06D06B7F002B14BF03219E
:10F860000021FFF755FFD5E903122B68C3F80C15EB
:10F87000C3F81425D5E90512C3F808153169C3F892
:10F88000102504313046FFF791FE0546002846D189
:10F89000D8F80430990719D507F1160001F0CEF811
:10F8A000224B98423ED1B87DC30003F1804303F55B
:10F8B000F83304F10C0204F59071C3F81015C3F885
:10F8C00014251B4A01238340C2F804350823C4F8D9
:10F8D000003598F808305BB9C4F81031D4F810310D
:10F8E00007F11503C4F834350123C4F83835236013
:10F8F000D8F804309A075CBF4FF48072C4F8042330
:10F90000DB0644BF4FF48003C4F8043314370023EC
:10F91000C4F84475C4F848350123A360E360284661
:10F92000BDE8F0816FF00405F9E700BF0000AD0B02
:10F9300000F00140194970B5044622F07F4608687E
:10F94000C1E90023A6F50013101AB3F5400F4FF0DC
:10F9500000050AD2124B19680A060B0A92191149BE
:10F9600043F10003C1E90023012502F0DDF9A30002
:10F9700003F1804303F58833D3F84025B2420BD11D
:10F980001DB94FF40002C3F84025074B4FF48030F7
:10F9900000FA04F4C3F8444370BD00BF60020020C5
:10F9A000AC0C0020480200200010014010B50123DB
:10F9B0008340114ABFF35B8FDC4352E8001F01EA2A
:10F9C000040C42E800CEBEF1000FF6D1BFF35B8F0E
:10F9D0004FF4803202FA00F002F1804202F58052C8
:10F9E000C2F80803BFF35F8FBFF36F8F0B4214BFE2
:10F9F0000120002010BD00BFA80C00200123124AE6
:10FA0000BFF35B8F834052E8001F194342E8001C9C
:10FA1000BCF1000FF7D1BFF35B8F0C4A4FF480337A
:10FA20008340C2F804330A4BBFF35B8F1B68BFF3FC
:10FA30005B8F23FA00F0C30742BF064B4FF400323E
:10FA4000C3F80021704700BFA80C0020001001403F
:10FA5000A40C002000E100E00D4B1B68190A1806F9
:10FA6000BFF35F8F0B4BD3F80435C01841F1000191
:10FA7000B3F5801F0AD2084BD3E90023994208BF8F
:10FA8000904203D210F1807041F10001704700BF35
:10FA9000AC0C002000100140480200202DE9F04F7E
:10FAA00085B016461F460546FFF780FF0190FFF719
:10FAB000D3FFB94208BFB0427FD2B6EB000867EB74
:10FAC000010900234FF080724B4508BF4245C0F04A
:10FAD0008580444B03EB0513D3E902239F4208BF03
:10FAE000964254D04FEA85094FF4803B09F1804992
:10FAF00005F150080BFA05F209F588394FEA880834
:10FB00001FFA88F80292384AD9F8400526F07F4358
:10FB100008F1804808F588381C469346D2F804A5B9
:10FB2000A0EB0A0020F07F402AF07F410128C9F8AD
:10FB3000401505D10393132005F0ABFB2A4A039B24
:10FB400002990AF1020CA4EB0C0020F07F40B0F502
:10FB5000000F88BF64460020C8F80000D8F80000F5
:10FB6000CBF8441324F07F40C9F84005DBF80405C6
:10FB7000824506D0201A023820F07F40B0F5000FF1
:10FB800019D8E41A24F07F44321947F10003154CC8
:10FB9000290104EB0510C0E902230E9A0F9B625065
:10FBA00043600024019B13B12846FFF727FF20463E
:10FBB00005B0BDE8F08F2046B0E701230B4ABFF344
:10FBC0005B8FAB4052E8001F194342E80010002849
:10FBD000F8D1BFF35B8F32463B46D8E76FF0150490
:10FBE000E0E700BF5002002000100140A40C0020FC
:10FBF00073B5194B194D00244FF0FF304FF0FF3112
:10FC0000C5F80845C3E902014FF48033C5F8043351
:10FC1000134B02264FF400320121C5F80463112072
:10FC2000C3F880212246FDF765FD1120FDF744FD54
:10FC30000C4A012313600C4A2B6013600B4B0C4AD7
:10FC40000093019400232046FFF728FF3046FFF77A
:10FC5000D3F8204602B070BD5002002000100140D1
:10FC600000E100E008100140A80C002035F9000078
:10FC7000FFFF7F002DE9F743344CD4F804339A0793
:10FC800009D5334B1A6832B100221A60314A1B6819
:10FC90001368013313604FF02003EFF3118283F3F5
:10FCA0001288BFF36F8FD4F80433DB0312D5BFF390
:10FCB0005B8F294B53E8001F21F0010043E8000649
:10FCC000002EF7D1BFF35B8F244B002936D1196882
:10FCD000002933D1002382F31188BFF36F8F53B310
:10FCE000FFF7BAFE06464FF02003EFF3118083F3CF
:10FCF0001288BFF36F8F1A4BD3E90289494508BFB9
:10FD000046454FF000021ED34FF0FF364FF0FF374D
:10FD1000D3E90015C3E902671A604FF48033C4F8D1
:10FD2000483380F31188BFF36F8F21B100954246AD
:10FD30004B460020884703B0BDE8F08300211960DE
:10FD40001B680123C7E71146EBE700BF0010014025
:10FD500004110140AC0C0020A40C00204011014013
:10FD600050020020144B13B5B0F1FF3F08BF1846F6
:10FD7000441E002C1EDD9C42A8BF1C46FFF76CFEF3
:10FD80000E4B0F49D3E90023801AB0F5000F28BFAE
:10FD900000240130044408480091844228BF0446EE
:10FDA00012194FF00000019043F10003FFF776FEB7
:10FDB00002B010BD0024E1E7FFFF7F0060020020D9
:10FDC00035F9000008B5FFF747FE024B1B68C01A63
:10FDD00008BD00BF600200208168054A08B51039DF
:10FDE000102302F0D4FD003818BF012008BD00BF69
:10FDF0001058010030B50C46816887B0102302AA64
:10FE00001039054602F0A7FD002811DB102202A9D7
:10FE1000284604F04FFA68B103232370A968012330
:10FE20000DF107022839284602F095FD00280BDA6B
:10FE300001202AE01649102202A802F019FF00282A
:10FE400014BF02230123E8E79DF8073003F00F02F7
:10FE50001B096270237101220DF10701284604F08D
:10FE600029FA10B96378042B03D9012363700023A6
:10FE70002371AA68A11C203A284604F040FA002801
:10FE8000D6D1E11C284604F095FA07B030BD00BF7A
:10FE9000105801002DE9F04385B06946022004F0B6
:10FEA0008DFA002836D102A9052004F087FA01282E
:10FEB0002ED103238DF808308DF80B309DF80050BB
:10FEC0009DF808609DF803709DF80B809DF80290E6
:10FED000164A00241078294604F0FDF9F0B1507854
:10FEE000314604F0F8F9C8B19378042B01D0BB4235
:10FEF00014D1D378042B01D043450FD11379042BAF
:10FF00000AD15079831E022B04D805B0BDE8F083D6
:10FF10000028D3D0FF20F8E74B45F2D00134032C62
:10FF200002F10602D6D10120EFE700BFEA5A010034
:10FF3000034B1868A0F1080358425841704700BFAE
:10FF400030010010064B1B68082B06D1054B1B68BF
:10FF5000052B02D8044AD05C70470020704700BFD0
:10FF60003001001034010010025B0100024AD2F897
:10FF70000034002BFBD0704700E0014010B5FFF7C4
:10FF8000D7FF40B14FF080430022C3F80C21C3F8E3
:10FF90001021C3F83825FFF7CBFF002846D04FF0DB
:10FFA00080525B4BD2F80414C3F82015D2F8081421
:10FFB000C3F82415D2F80C14C3F82815D2F810147D
:10FFC000C3F82C15D2F81414C3F83015D2F818144D
:10FFD000C3F83415D2F81C14C3F84015D2F8201415
:10FFE000C3F84415D2F82414C3F84815D2F82814DD
:10FFF000C3F84C15D2F82C14C3F85015D2F83014AD
:020000040001F9
:10000000C3F85415D2F83414C3F86015D2F8381474
:10001000C3F86415D2F83C14C3F86815D2F840143C
:10002000C3F86C15D2F84424C3F87025FFF78AFF93
:1000300010B1384B384A1A60FFF784FF18B1374BBC
:10004000FB22C3F81825FFF77DFF48B13449354B33
:100050000A681B6822F00F0203F00F0313430B60C2
:10006000FFF770FF18B1304B4FF400721A60FFF7C2
:100070005FFF48B14FF08043D3F80024D20744BF5C
:100080006FF00102C3F80024284B1B68082B0ED127
:10009000274B1B68052B02D8264AD35C3BB14FF097
:1000A0001023D3F808224FF08043C3F858254FF0AF
:1000B0001023D3F80022002A03DBD3F80432002BEC
:1000C00022DA1D490123C1F80435FFF74FFF4FF035
:1000D00010201224C0F80042FFF748FFC0F8044285
:1000E000FFF744FF0023C1F80435FFF73FFFBFF3DC
:1000F0004F8F1249124BCA6802F4E0621343CB607F
:10010000BFF34F8F00BFFDE70E4B0F4A1A6010BDC3
:1001100000C000408C5600404881030000F00040C1
:10012000E40E0040580200104096024030010010DA
:1001300034010010FC5A010000E0014000ED00E035
:100140000400FA05A00000200090D00370B501253E
:100150000368B3FA83F2202AC2F11F0414D0BFF35C
:100160005B8F05FA04F223EA020250E8006F9E4218
:1001700004D140E8002CBCF1000FF6D1BFF35B8F37
:10018000E6D102480C7070BD0148FCE70000AD0BE1
:100190000200AD0B0368CB40DB0710B515D401237B
:1001A00003FA01F10368BFF35B8F41EA030250E8F1
:1001B000004F9C4204D140E8002CBCF1000FF6D166
:1001C000BFF35B8FEED1024810BD0248FCE700BFD1
:1001D0000000AD0B0400AD0B044B1A7922B90122CB
:1001E00018609A800248704702487047B00C00209F
:1001F0000000AD0B0C00AD0B10B1012820D07047F2
:100200004FF08043D3F81824D3F8181411F4803F2A
:10021000194611D002F00302012A0DD1C3F81825A6
:100220000C4B00221A601B684FF080430222C3F877
:10023000042301229A6070470023C1F81835EFE7C4
:10024000054B00221A601B684FF08043C3F804037B
:1002500018607047040100400001004038B510B13B
:10026000012818D038BD4FF080430222C3F808237C
:10027000184A10601268184A0121116042F2107584
:100280001C46D4F81834DB03ECD5012004F01DF92A
:10029000013DF6D1E6E7114B4FF080440022C4F84F
:1002A00008031A601B680E4B42F210751860D4F8F0
:1002B0000C34D4F80C24D20303F0010305D523B188
:1002C000012004F002F9013DF1D1064B00225A71E0
:1002D000C8E700BF040100400C00004000010040DE
:1002E00004000040B00C0020164B1A6810B56AB12B
:1002F00000221A601B684FF080430122C3F80823D4
:10030000114B587910B95A711B6898470F4B1A68EE
:1003100072B100221A601B684FF08043D3F8182492
:10032000D3F81814920704D10122C3F818259A6053
:1003300010BD0222C3F80823034BBDE810401B6820
:100340000120184700010040B00C002004010040CB
:10035000036803F01F025B09012B0260024818BF0B
:100360004FF0A040704700BF0003005070B500F18F
:1003700008030C4C34F81330DA0505460E4607D551
:10038000C3F3432304EBC30254F833305268984755
:10039000A3682BB1E26831462846BDE87040184793
:1003A00070BD00BFA4000020124B083010B433F819
:1003B0001020D1051BD5C2F3432122F4F85223F8B3
:1003C000102003F11004002034F8022B12F4807F77
:1003D00003D0C2F34322914209D001303028F3D137
:1003E000002243F83120044810BCFFF7D3BE10BCF4
:1003F000704700BFA40000201801002038B50A4C47
:1004000000F1080534F815309A0606D55B0B074A4B
:1004100003F5A273002142F82310FFF7C5FF002364
:1004200024F8153038BD00BFA40000200060004053
:100430002DE9FF411D46044617460B4609B34D4EB4
:1004400000F1080836F8182002F02202222A03D10F
:10045000494804B0BDE8F0810022CDE900228DF8C2
:100460000E208DF80F200DF10E010DF10F0204F09A
:1004700038F836F8183023F0020343F0010326F869
:10048000183097B13B483E787A6804F1080330F899
:1004900013108F070CD5002ADAD130F8132022F080
:1004A0001C0242EA860220F81320CDBB3348D0E775
:1004B00021F02001C904C90C20F81310002AECD047
:1004C000032EC5D817782EB92D4A07F5A27142F828
:1004D0002160E2E7BA0002F1804202F5C0424FEA31
:1004E000042ED2F810C52CF0030CC2F810C5D2F8B7
:1004F00010C52CF44F3C2CF4407CC2F810C5D2F847
:1005000010C50EF47C5E4CEA064C41EA47314CEAD9
:100510000E0C41F0200120F81310C2F810C5BCE702
:10052000D5E900672046FFF73FFF002EBED0114DF2
:100530002B689E4204D16B689F4201D1002209E0E2
:1005400010480DF10F01FFF701FE0C4B984280D1CE
:100550009DF80F2045F8326005EBC20308345F6058
:1005600035F8143043EA422343F4807325F81430FD
:100570009CE700BFA40000200400AD0B0000AD0B01
:100580000060004018010020F0B5044685B0154613
:1005900009B300F10807314E36F81730980701D437
:1005A0009A0658D413F01C0F02D04B78012B52D06E
:1005B00001238DF80F300023CDE900134A1C8B1C5A
:1005C00020460DF10F0103F08CFF36F8173043F091
:1005D000030326F8173015B9214805B0F0BD1F4EAA
:1005E00004F1080736F81700830734D595F800C0E2
:1005F0006146890020F0200001F18041C00401F52E
:10060000C041C00C26F817000023C1F810356A78E5
:10061000002AE1D0D1F81035AD7823F4991323F4F2
:10062000F853C1F81035D1F810E5230203F47C53D8
:10063000120443EA0E0302F440322D05134305F47D
:10064000801540EA4C302B4340F0200026F817007C
:10065000C1F81035C0E70348BFE700BFA400002081
:100660000000AD0B0400AD0B014BC3E90201704764
:10067000A40000200830054B33F810309A0643BF21
:100680005B0B03480B700348704700BFA4000020B9
:100690000000AD0B0400AD0B38B50E4C94F878504B
:1006A000B5B96022294604F1100002F0FCFA0620D8
:1006B000FDF702F8084B09481D601B68084B4FF016
:1006C0000042C3F80423012384F87830636738BDFF
:1006D0000448FCE7A40000207C6100400000AD0B52
:1006E000006000400500AD0B034B93F87800003824
:1006F00018BF0120704700BFA40000200146014838
:10070000FFF748BD1401002001460148FFF71EBD58
:100710001401002037B51F4B00F10802044633F8DE
:1007200012309A061DD513F002051AD15B0B9A0000
:1007300002F1804000F5C24002F1804202F5C04261
:1007400005600068D2F8100540F00100C2F81005FD
:1007500029B1012202FA03F30F4AC2F8043303B0AD
:1007600030BDC3F38203042B10D0052B10D001A899
:100770000194FFF7EDFD019BD0F81015D94001F071
:1007800001010231204603F0F3FEE8E70321F9E717
:100790000221F7E7A4000020006000400E4B00F1AA
:1007A000080233F81230990613D59A0711D45B0B5F
:1007B00001229A409B00094903F1804303F5C0439D
:1007C000C1F80823D3F8102522F00302C3F810253E
:1007D0007047002103F0CCBEA40000200060004060
:1007E0000E4B00F1080213B513F81230DB07044674
:1007F00011D5FFF7D3FF2046FFF700FE01A80194B3
:10080000FFF7A6FD019B03F5E073022240F82320C9
:10081000034802B010BD0348FBE700BFA40000205E
:100820000000AD0B0400AD0B2DE9F04F644B6548A3
:100830006549002587B001222C461E6836B1D0F8E4
:10084000046316421EBF1C601E68154304338B42AE
:100850004FEA4202F1D15D4F3B687BB34FF0A043BA
:100860005B4ED3F820250492C3F82025D6F8203516
:100870000593C6F8203500960DF110094FF00008D9
:100880004FF0010BD9F80030F3B908F12008B8F1A6
:10089000400F09F10409F5D13B603B6800994FF026
:1008A000A043D3F820250492C3F82025009BD3F859
:1008B00020350593C1F820351343DDD10124002DE7
:1008C00066D107B0BDE8F08F93FAA3F3B3FA83F3D0
:1008D00008EB030606F108023E4B039633F812209C
:1008E000C2F38203F40801939A4604AB06F00700B2
:1008F0000BFA00FC185D20EA0C00185503A89108BB
:10090000FFF726FD039C04F5E0744B0750F82440E4
:10091000C4F3014423D551463046FFF727FD03A811
:100920000396FFF715FD039A02F5E072E4B250F862
:100930002220C2F30142944207D10021304603F045
:1009400017FE2146304603F013FE03A80396FFF777
:10095000FFFC039B0BFA03F3C0F8203592E7022C4F
:100960000CBF03210221304603F002FE019B032B42
:1009700004D0022C07D1BAF1010FE6D1514630461E
:10098000FFF7F4FCE1E7032CDFD1BAF1020FF4E743
:1009900095FAA5F3B3FA83F304FA03F29B0003F18B
:1009A000804303F5C04325EA0205D3F81005D3F8C8
:1009B0001015C0F30520C1F30141FFF7D7FC7EE716
:1009C0000061004000600040206100407C61004008
:1009D00000030050A40000204FF080531A69B0FBC0
:1009E000F2F302FB130373B9084B0222C3F8042588
:1009F000C3F80805D3F80024D207FBD50022044829
:100A0000C3F8042570470348704700BF00E0014069
:100A10000000AD0B0A00AD0B074B0122C3F8042503
:100A2000D3F80024D207FBD50160BFF35F8F00220B
:100A3000C3F80425704700BF00E0014001460148AB
:100A4000FFF784BB2001002010B5144C144A15494F
:100A5000032323616361144BA261E3614FF480635C
:100A600023620023A3626362E36222660F4A626626
:100A7000E01D1022A2662367E366636702F0D2F8E6
:100A8000BFF35F8F0A49204602F0CCF8BFF35F8FB7
:100A90002023A371BFF35F8F10BD00BFB80C0020EF
:100AA000085B0100115B01000B0E0020FB0D002014
:100AB000155B01001FB589B1046824686469CDE93C
:100AC00000340DF10F0303F051FF28B99DF80F30EA
:100AD000002B08BF4FF0004004B010BD004CEEE703
:100AE0006D4701000E4B70B553F82040013053F8AC
:100AF0002060A64200D870BDD4E90035284698474A
:100B000065B1EB6830B10028B8BF4042FF28A8BFEC
:100B1000FF2018705A7842F001025A700834E8E752
:100B20002058010070B5054610B90024204670BD5C
:100B30000378002BF9D00F4A0F4C1646944208D187
:100B40000D4CB442F1D0204604F08EF850B9183460
:100B5000F7E7204604F088F810B12368AB42E5D0EF
:100B60001834EBE72168284602F076F80028EED129
:100B7000DCE700BF185401008853010030B50023A2
:100B800087B00122CDE904230F22CDE902320D4CBA
:100B90000D4A01930D49182304EBC01403FB0023F5
:100BA0004FF4B075009305FB0011094B4FF4A07290
:100BB000204600F009F9637B23F00403637307B058
:100BC00030BD00BF68020020600D0020001800202A
:100BD000410F010008B50A4B012202201A70FFF7ED
:100BE00081FF01F047F90320FFF77CFF00F04AF98D
:100BF000FBF700FD034A137B23F00103137308BDC9
:100C00000B120020E80200200248034A0021121AB9
:100C100002F049B848020020C813002080B5DFF870
:100C2000D880A6B088F308882D4D2E4E6B69DFF86A
:100C3000CC9043F4007300246B61E02385F82230EC
:100C4000EC772C766C76AC7685F820406B6A43F4B2
:100C5000E0236B6285F82340FCF73CFFFCF70EFDB8
:100C60004FF0FF33AB62EB62FDF75EF8FCF7CEFFAF
:100C700040F20113ADF8243006ABB360CDE91F4458
:100C800003F0F1FF2046FFF72DFF0120164DFFF77F
:100C900029FF00F029FE154B059301231449009408
:100CA000CDE903434FF480624B46CDE90144284629
:100CB000F56100F089F86A7B22F004026A73074646
:100CC000284604F0FEF92046FFF758FF094BF36071
:100CD0004A46394628463475C6F80480FCF7CCFDF0
:100CE00000ED00E0600D0020E80200201C5B010028
:100CF000E01300206802002080210020D50B0100B5
:100D000038B5064C064DAC4201D3002038BDD4E9BD
:100D10000112204603F0CDFF1434F4E7C001002097
:100D2000C001002070B50E4B0E4CA34201D3002031
:100D300070BDD3E9030141EA000212F003020BD1B6
:100D40009D685A61AA4201D11C33EEE75E690E60CC
:100D5000013259610144F5E76FF01500E8E700BF83
:100D6000A4010020C0010020D3B50C4616461F4642
:100D70004FF02003EFF3118183F31288BFF36F8FDD
:100D800043695BB123601B684361836901338361FD
:100D9000002081F31188BFF36F8F11E056EA07023C
:100DA00003D123606FF00B00F3E70246CDE9006743
:100DB000083000F0EBFC18B9024B9B685B692360BC
:100DC00002B0D0BD600D00202DE9FF410E9E0673DC
:100DD000042646730D9E867300F158050F46D61DF6
:100DE000C0E916550C9A002526F007062037C0E901
:100DF0000655C0E919768560C573C56606F12008F9
:100E000002920B9A019288440A9A00924246044642
:100E1000FCF7FCFC044B65659B6803B11B6F236703
:100E2000404604B0BDE8F081600D0020F0B587B009
:100E300000250595109D04950F9D03950E9D029527
:100E4000DDE912670D9D01950C9D00950446FFF7A5
:100E5000BBFF7B1C08BFB6F1FF3F05D056EA070376
:100E600005D1204600F036FC204607B0F0BD04490D
:100E700032463B4604F1180000F0CEFEF4E700BF16
:100E8000E35001002DE9F0472A4E2B4D86B0B046C5
:100E9000B54205F1300410D300F030FB264CDFF8EA
:100EA0009CA04FF4004940F2E7360027444521D387
:100EB00006B0BDE8F04700F0FBBC54F8043C0593D5
:100EC00054F8103C049354F8143C039354F8183C21
:100ED000029354F81C3C019354F8203C009354E9CD
:100EE0000A2354E90C01FFF76FFF54F8303C5D65AD
:100EF0002546CDE7636A5A1C0DD023EAE3733046DA
:100F00003946C9FB0301B94208BFB042256804D184
:100F1000284600F0DFFB3034C8E74FF47A72002334
:100F2000FBF7EEF902460B4605F11800514600F0BA
:100F300073FEF0E7A4010020A4010020E3500100AB
:100F400008B5094C4FF02002EFF3118382F31288A9
:100F5000BFF36F8F04F06FF9A061FCF745FA00282A
:100F6000F0D1FCF791FBEDE7600D00202DE9F34196
:100F7000044616461F464FF02003EFF3118883F313
:100F80001288BFF36F8FC368354A6BB18068916870
:100F9000884219D056EA070318D188F31188BFF3A5
:100FA0006F8F6FF00F000CE0916891F90E102161C6
:100FB0000133E3609368A36088F31188BFF36F8FF8
:100FC000002002B0BDE8F0812169F0E791F90E1030
:100FD00090F90E309942A8BF19466FF07E029142F7
:100FE000B8BF11468B422FDD00F0E4FB0546CDE98A
:100FF00000671C482246414600F0C8FB0028E0D0AC
:101000004FF02003EFF3118683F31288BFF36F8F45
:10101000236821699C420AD04BB193F90E30994262
:10102000A8BF19466FF07E039942B8BF1946A06861
:1010300090F90E30994209D16DB10A48314600F05D
:101040004BFA6FF00A00BCE70025D0E700F0B2FBD6
:101050000028F2D1F0E786F31188BFF36F8FF0E735
:10106000600D00200C12002038B583680446002B68
:1010700036D01E4A9268934235D1DA7B013ADA7350
:10108000C368012B05D9013BC36000F011FC0020AF
:1010900038BD4FF02003EFF3118583F31288BFF3BF
:1010A0006F8F0169806890F90E30994201D000F08D
:1010B00081FB204604F064F8A06058B190F90E203E
:1010C00022610022826703F0FCFF0948294600F0F4
:1010D00003FADAE7E06085F31188BFF36F8FD4E796
:1010E0006FF01500D4E74FF0FF30D1E7600D00201E
:1010F0000C120020F7B516461F464FF02003EFF301
:10110000118583F31288BFF36F8F04689CB1236845
:10111000426823F003039442036008BF4360012147
:10112000204603F0EFFE044685F31188BFF36F8F6E
:10113000204603B0F0BD56EA0703F5D000F10802DF
:10114000CDE900672946104600F020FB0028EFD1CA
:10115000014B9B685C69EBE7600D002038B50446E5
:101160004FF02003EFF3118583F31288BFF36F8FE5
:1011700004F006F848B10022826703F0A2FF294676
:101180000548BDE8384000F0A7B9D4E902329A42D8
:1011900018BF0133A360F2E70C12002037B51446E4
:1011A0001D464FF02003EFF3118183F31288BFF344
:1011B0006F8F836843B1013B836081F31188BFF374
:1011C0006F8F002003B030BD54EA050306D181F3D0
:1011D0001188BFF36F8F6FF00F00F3E70246CDE980
:1011E0000045024800F0D2FAECE700BF0C120020E4
:1011F0002DE9F04F4B4E85B004464FF0FF384FF0CD
:10120000FF394FF02003EFF3118783F31288BFF308
:101210006F8FD4F88050D4F8983085B923F0040249
:101220005D07C4F8982033D40023CDE900890293E8
:1012300004F1880239463C4800F072FCE1E7D4F83A
:1012400084202968C4F88010954201D1C4F8841024
:1012500043F00203C4F89830EB6823F0040343F032
:101260000103EB606B6887F31188BFF36F8F28462B
:1012700098474FF02003EFF3118B83F31288BFF3ED
:101280006F8FEB68990723F001020BD4EA600EE040
:1012900004F1900500220121284603F099FF00285F
:1012A000F8D1C1E7306823F00303EB6070B9D4F8DC
:1012B000983023F00203C4F898308BF31188BFF301
:1012C0006F8FD8059DD400F01BFB9AE707684FF09D
:1012D000000A002F38BF0027534642689542014656
:1012E0000ED10168BAF1000F14D1726831609042DA
:1012F00000D1716040F8083BFFF730FF51460023F2
:10130000002FD4D03A68002A38BF002238468A46D7
:101310001746E2E7CAF800107268904208BFC6F8A4
:1013200004A0E7E7880D00200C120020F8B5C36880
:101330009A0704460E46C3F340051FD45F071FD427
:101340000A680AB982680A60D80744BFA368336094
:1013500037684CBF022501257FB31B4B9B68BB42FE
:1013600011D103F056FD80F00100C0B2D7F89830DB
:10137000D907C3F3800223D53AB140B96FF00F0506
:101380000023336013E00020F0E71B07F6D40023AE
:101390002360D7F8843063B9C7E92044384603F0A6
:1013A0001DFEE36843F00403E3603368A36028464E
:1013B000F8BD1C60C7F88440F0E76FF01505DFE763
:1013C0006FF01205DCE700BF600D00200146014808
:1013D00003F014BE70030020F0B589B0044600206D
:1013E000C4E920000E9D04F18800C4E9220004F144
:1013F0009000C4E924001DB32879002840F20110B0
:1014000008BF0120C4F8980000204FF0FF364FF0CD
:10141000FF37CDE90330CDE90100CDE90667094B7F
:1014200000942046FFF702FD25B1296811B120463E
:1014300003F0F5FC204609B0BDE8F04003F0F2BC33
:101440000120DFE7F111010010B5084C23685BB102
:10145000FEF7B8FC03462068054A0344BDE8104087
:101460001361002103F0F7BE10BD00BF980D0020EE
:10147000600D0020F8B504460D464FF02003EFF351
:10148000118683F31288BFF36F8F104B00224FF445
:10149000004740F2E73000211A61E7FB0401002316
:1014A0004FF47A72FAF72CFF002C094B09DC186014
:1014B000084B1D60FFF7C8FF86F31188BFF36F8FDD
:1014C000F8BD0228B8BF0220F1E700BF600D002080
:1014D000980D0020940D002049B9EFF3058030B934
:1014E000054BDA699B689A4201D0FCF73BB981F35E
:1014F0001188BFF36F8F7047600D00204FF02003FD
:10150000EFF3118183F31288BFF36F8F044B9A6856
:10151000D37B013BD37381F31188BFF36F8F704787
:10152000600D002038B502460C480D4D03F0BFFD9C
:10153000044600B9EC68AB684AB95A7BD20606D1BA
:10154000A26922B9DA897F2A01D9EB6138BD9C42B0
:1015500001D0FFF779FFEC61F8E700BF800D0020B4
:10156000600D002070B590F90D20437B002A0146E4
:1015700004DA03F07F03437303F05DFD4B7B174AEE
:1015800063F07F0310464B7350F8203F556A834247
:1015900008BF0023002B38BF0023CBB191F90E60A8
:1015A00093F90E40A6420FD0A41B002C0CDD586806
:1015B000C1E90030016059609068431A5842BDE8A3
:1015C00070405841FFF7AEBFAB4201D01B68E4E763
:1015D000C1E9000529605162EEE700BF600D0020FF
:1015E00070B501464FF02003EFF3118483F31288A6
:1015F000BFF36F8F164B174A98681568A8421D46AF
:1016000006D1FFF721FF84F31188BFF36F8F70BD00
:1016100000261660104A1268BAB1C2897F2A14D80F
:10162000427BD20611D10D4A90F90E6012689642A3
:101630000BDB0B4A904208D01A698A4202DCFFF7A2
:1016400091FFDEE7521A1A61DDE700232B61DAE72A
:10165000600D0020900D0020980D0020940D0020BA
:101660006802002070B490F90D30427B002B2DDB16
:10167000D3062BD183694BBB154962F07F024273BD
:101680000A464D6A52F8204F944218BF2346002B59
:1016900038BF0023ABB190F90E6093F90E40A6421B
:1016A0000BD0A41B002C08DD5A68C0E90032106082
:1016B000586070BC0020FFF735BFAB4201D01B68FB
:1016C000E8E7C0E9002528604862F2E770BC70478F
:1016D000600D002010B54FF02002EFF3118482F36B
:1016E0001288BFF36F8F427B510704D484F31188B3
:1016F000BFF36F8F10BD22F004024273FFF7B2FFF9
:1017000021460248BDE81040FFF7E6BE0C1200205B
:1017100008B590F90D20437B002A014604DA03F056
:101720007F03437303F087FC044B9868431A5842C5
:101730005841BDE80840FFF7F5BE00BF600D00202E
:101740002DE9F041064614461D464FF02003EFF305
:10175000118783F31288BFF36F8F03F0E4FC87F3E4
:101760001188BFF36F8F6B1C08BFB4F1FF3F08D027
:1017700022462B4606F118000349BDE8F04100F06F
:101780004BBABDE8F08100BFE350010010B5074B34
:101790009868074B0C4618601146DDE90223FFF7F5
:1017A000CFFF2046BDE81040FBF7DCBF600D0020F6
:1017B000900D0020F8B504464FF02003EFF311869A
:1017C00083F31288BFF36F8F437BDA0649B238D1B7
:1017D0008569002D35D103F07F03437303F02BFCA3
:1017E000437B817363F07F0343731748034653F8C9
:1017F000207F9F4218BF3D46002D476A1A462B4660
:1018000038BF0023C3B193F90E50A94210D06D1A0E
:10181000002D0DDD5A68C4E9003214605C600120BF
:10182000FFF780FE012086F31188BFF36F8FF8BDAC
:10183000BB4201D01B68E5E7C4E900273C60446275
:10184000EDE7A1730020EEE7600D002070B50446BF
:10185000183003F0DAFC4FF02003EFF3118683F326
:101860001288BFF36F8F94F90D20637B002A05DA8D
:1018700003F07F036373204603F0DDFB0B4D637BB6
:10188000A86843F010036373031B58425841FFF7E5
:1018900049FE86F31188BFF36F8FAB68A34203D173
:1018A000BDE8704003F0F9BB70BD00BF600D0020C3
:1018B00010B54FF02003EFF3118483F31288BFF3C8
:1018C0006F8F084B9A68D37B0133D3730020FFF7E7
:1018D00029FE84F31188BFF36F8FBDE8104003F039
:1018E000DCBB00BF600D0020044B002103F120028F
:1018F000C3E908220846FFF7BDBD00BF600D002008
:10190000F8B54FF02003EFF3118483F31288BFF38F
:101910006F8F1B498868437B03F07F03437303F099
:101920008AFB8A68537B084663F07F03537350F841
:10193000203F4E6A834208BF0023002B38BF00239C
:10194000CBB192F90E7093F90E50AF420FD0ED1B50
:10195000002D0CDD5968C2E900310A605A6001208F
:10196000FFF7E0FD2046BDE8F840FBF7FBBEB342C1
:1019700001D01B68E4E7C2E9000632604A62EEE784
:10198000600D00202DE9F04104460D4654EA0501A2
:1019900004D1FFF7B5FF0020BDE8F0816FF0010131
:1019A0000A1A4FF0FF3161EB0503012A73F10003BE
:1019B0002ADA03F06AFC06194FF02003EFF31188CE
:1019C00083F31288BFF36F8F114F124BB868186002
:1019D000FFF79EFEB868104922462B46183000F0EB
:1019E0001BF9BA68537B43F0100353734046FBF76F
:1019F000B9FE03F04AFC301A66EB0601012871F1CA
:101A00000003B8BF0020C7E76FF00106361AD3E71E
:101A1000600D0020900D0020E350010008B50B463A
:101A2000013308BFB0F1FF3F06D1084B9868FFF7BC
:101A30000DFF4FF0FF3008BDFFF7A4FF4FF47A739E
:101A400080FB0323D00B40EA4340F4E7600D002005
:101A5000014B9868704700BF600D0020EFF30583CD
:101A60003BB9054B9B68D8897F288CBF002001209B
:101A700070470020704700BF600D00202DE9F04145
:101A800004464FF02003EFF3118683F31288BFF36F
:101A90006F8F437B1A0705D586F31188BFF36F8FCD
:101AA000BDE8F08123F0200242F00801D20920D1E4
:101AB0004173A36813B1204603F0C5FA04F118007E
:101AC00003F0A3FB04F158074FF00008A56DBD42D9
