:02000002F0000C
:10800000801800205D930F001BC20F0031930F00FA
:1080100031930F0031930F0031930F0000000000E7
:108020000000000000000000000000002D900F0084
:1080300031930F0000000000D98F0F0031930F0023
:10804000DD900F00DD900F00DD900F00DD900F0040
:10805000DD900F00DD900F00DD900F00DD900F0030
:10806000DD900F00DD900F00DD900F00DD900F0020
:10807000DD900F00DD900F00DD900F00DD900F0010
:10808000DD900F00DD900F00DD900F00DD900F0000
:10809000DD900F00DD900F00DD900F00DD900F00F0
:1080A000DD900F00DD900F00DD900F00DD900F00E0
:1080B000DD900F00DD900F00DD900F00DD900F00D0
:1080C000DD900F00DD900F00DD900F00DD900F00C0
:1080D000DD900F00DD900F00DD900F00DD900F00B0
:1080E000DD900F00DD900F00DD900F00DD900F00A0
:1080F000DD900F00DD900F00DD900F00DD900F0090
:1081000053B94AB9002908BF00281CBF4FF0FF31FE
:108110004FF0FF3000F00CB8ADF1080C6DE904CE63
:1081200000F008F8DDF804E0DDE9022304B0704750
:10813000704700BF2DE9F04786468C460846089EEA
:10814000154674461946002B40F0C2808542B2FAAB
:1081500082F245D94AB1C2F1200300FA02FC2EFA9C
:1081600003F3954043EA0C0C94404FEA154EA8B235
:10817000BCFBFEF8230C0EFB18CC08FB00F943EA0D
:108180000C43994528D9EB1808F1FF3704D29945DB
:1081900002D9A8F102072B44A3EB0903A4B2B3FB55
:1081A000FEFC0EFB1C330CFB00F044EA0344A0422F
:1081B00014D92C190CF1FF3304D2A04202D9ACF12E
:1081C00002032C44241A43EA07401EB1D440002382
:1081D00034607360BDE8F0874746DDE76346F1E74A
:1081E00092BB431B01214FEA154EAFB2B3FBFEFC1D
:1081F000200C0EFB1C330CFB07F840EA03439845A8
:1082000062D9EB180CF1FF3004D2984502D9ACF1D9
:1082100002002B44A3EB0803A4B2B3FBFEFC0EFB4D
:108220001C330CFB07F744EA0344A7424ED92C1930
:108230000CF1FF3304D2A74202D9ACF102032C4463
:10824000E41B43EA0040C0E7C2F1200320FA03F137
:10825000954090402EFA03F303434FEA154EAFB218
:10826000B1FBFEFC0EFB1C10190C0CFB07F841EADD
:108270000041884504FA02F422D969180CF1FF3054
:1082800004D2884502D9ACF102002944A1EB0801CF
:108290009BB2B1FBFEFC0EFB1C110CFB07F743EA83
:1082A00001439F420ED9EB180CF1FF3104D29F42DB
:1082B00002D9ACF102012B44DB1B41EA004192E7F9
:1082C0006046E3E76146F7E76046A3E76346B7E742
:1082D000834206D916B9002108467BE7C6E900E0CB
:1082E000F9E7B3FA83F78FB9834201D3724508D80F
:1082F000BEEB020460EB030301209C461EB9002183
:1083000068E73846FAE7C6E9004CF8E7C7F1200C01
:10831000BB4022FA0CF41C432EFA0CF120FA0CF3A9
:10832000B84001434FEA14490EFA07F5B3FBF9F8D8
:108330001FFA84FE09FB18300B0C08FB0EFA43EA07
:1083400000439A4502FA07F240D9E31808F1FF30DA
:1083500004D29A4502D9A8F102002344A3EB0A03F0
:1083600089B2B3FBF9F809FB183308FB0EFE41EAAA
:1083700003418E452CD9611808F1FF3304D28E4594
:1083800002D9A8F10203214443EA0040A0FB02986D
:10839000A1EB0E014145CE46434602D306D14D45E1
:1083A00004D2B9EB020E68EB04030138002EA6D00C
:1083B000B5EB0E0261EB030101FA0CFC22FA07F3A4
:1083C0004CEA0303F940C6E9003198E74046C5E7A7
:1083D0004346D9E708B5024803F023FE452008BD0F
:1083E000B4CE0F00014B1B68184700BF00000020EF
:1083F00007B50B46002102460091034800F014F92E
:1084000003B05DF804FB00BFE5830F002DE9F047E2
:10841000058B04462807904611D4022905F007056C
:1084200040F0CD80204603F013FE78B10138218B57
:10843000042811D8DFE800F0C3106D8595000129EC
:108440000CBF45F0100545F02005258388F3118801
:10845000BFF36F8FBDE8F08701F0070AAA4500F06F
:10846000A6800027B9463E46A368002B00F0BD80D9
:1084700041F00801218388F31188BFF36F8FA16851
:10848000002900F0BB800D68002900F0B780D1F80A
:108490000480334652462046C047002D76D02B68D4
:1084A00029461D46F0E701F007035A1F012A1BD891
:1084B000002221F00701062B276889B2C4E90022B7
:1084C00009D13B4603E0628B013262831B68002BBB
:1084D000F9D141F002012183204603F0B9FD0028C3
:1084E0007BD041F0200177E0042B0AD121F0070175
:1084F00089B22183204603F0ABFD10B141F0200189
:108500002183218B01F0070AAA4550D00027B946E4
:10851000AAE7236921F0070141F00601062DD3F8EF
:10852000009021832DD1B9F1000F40D041F0080116
:10853000218388F31188BFF36F8F3A492046C847DB
:1085400029E021F00701236941F0040189B2042DDB
:10855000D3F804902183E6D000273E464FF0040A6A
:1085600082E721F00701236941F0050189B2052D59
:10857000D3F808902183D6D000273E464FF0050A55
:1085800072E700273E464FF0060A6DE72B4687E765
:10859000B9F1000FD1D14FF02003EFF3118883F32D
:1085A0001288BFF36F8F238B23F008032383258B5F
:1085B000EA062ED525F01003238305F0070566692A
:1085C000218B002EBFF66FAF00232768C4E900336C
:1085D00021F0070141F001012183218B01F0070AFD
:1085E000AA454FF000097FF43FAF002F9BD041F028
:1085F0000801218388F31188BFF36F8F002FC7D044
:108600003D68394633465246204603F04DFD2F461D
:10861000F4E7AB067FF51AAF25F02003238305F0BE
:108620000705FFE6D5C00F002DE9F04F8DB01D46C0
:10863000531E8246019103934FF00009039B587823
:10864000252803F1010419D11E4600204FF0FF3800
:10865000023603460290444631780396392954D8AD
:108660001F2914D8002900F0F08101992520D04756
:1086700001993078D04709F10209DFE7002800F0BE
:10868000E4810199D04709F101090394D6E7A1F1EA
:108690002002192AE9D801A757F822F005870F0010
:1086A0006B860F006B860F0005870F006B860F002F
:1086B00085870F006B860F006B860F006B860F009F
:1086C0006B860F00D1870F0005870F006B860F00A8
:1086D000E5870F0091870F006B860F009F870F00C3
:1086E000BF870F00BF870F00BF870F00BF870F0036
:1086F000BF870F00BF870F00BF870F00BF870F0026
:10870000BF870F0008460136A6E7582900F0EE8023
:10871000A1F16302D7B2172FA7D8172AA5D801A7AE
:1087200057F822F093890F000B880F006B860F001B
:108730006B860F006B860F00EB870F000B880F0016
:108740006B860F006B860F00EB870F006B860F00A8
:108750006B860F006B860F00C7880F006B860F00BB
:108760006B860F0067890F006B860F000B880F0068
:108770006B860F006B860F00C7880F006B860F009B
:10878000EB870F0001992520D04709F1010955E732
:10879000029A02F0FE0202924FF00008B3E7002CAA
:1087A0000DDAB8F1000F0DDA029A002A00F04581C7
:1087B00024EAE4740A2202FB0414303CA3E7B8F173
:1087C000000FF5DB0A2202FB0812A2F130089AE73B
:1087D000B8F1000F55F8042B80F23181002A80F2A5
:1087E00030815442022202928DE7682903D1682B1E
:1087F00006D1482387E76C2902D16C2B00F0238136
:10880000002B7FF432AF0B467DE77A2B06D175291A
:1088100055F8046B14D14FF0000B0CE06C2BF6D024
:108820004C2BF4D1073525F007037529D3E9006BEC
:1088300003F1080506D120283ED1864F013C09E00E
:108840004FEAE67BBBF1000FF5DA7642824F6BEB25
:108850004B0B013C0DF12D0305930023049330468F
:1088600059460A220023FFF74BFC049B03F1FF3C0F
:10887000CDF810C0DDF814C030320CF8012DCDF861
:1088800014C0B4465A46BCF10A0F72F10002064603
:108890008B46E4D2C3F1010B30330DEB0306B8F184
:1088A000000FA6F104066DDA029BD9077CD4A8EB71
:1088B0000B03A4EB0B0413E02B280ABF674F684F90
:1088C00004F1FF34C6E770290FD155F8042B0023BB
:1088D000FAB9644E053C6FF004034FF0050B604F8E
:1088E000029A92076FD4A04665E078216C2B03D1E1
:1088F00055F8042B002308E04C2BF9D1073525F05F
:1089000007031D465B6855F8082B232825D18806E8
:1089100021D5554F023C01F06001A1F1390B0DF159
:108920002D0E002602F00F01092988BF594430316D
:108930000EF8011D102A4FEA121141EA03714FEAA5
:10894000131073F1000306F1FF3C08D2C6F1010BCE
:1089500006F13003A1E7454FDCE7414FDBE7664610
:108960000A460346DEE755F8046B304603F05CFC2C
:10897000B8F1000F834602DB4045A8BFC346384F1D
:108980004FF00008A8EB0B03002B92DDA4EB0804CA
:10899000A6E755F8043B8DF81830013C4FF0FF3343
:1089A0004FF0010B06AE9AE7A046EBE70293019960
:1089B0002020D047029BB8F10108F7D524EAE472E1
:1089C000013C9144A41AB84606E00493029201992E
:1089D000D047029A049B9046424612F8010B0028A9
:1089E000F3D11A46013A15D5002BACBFC7EB0307EC
:1089F0007F425B46013B15D5BBF1000FA8BF5F442A
:108A00004F442646013E14D5002CA8BF3F1907EB62
:108A1000080913E60493029201993020D047049B81
:108A2000029ADFE70293019916F8010BD047029BE7
:108A3000E0E701992020D047E4E70122D3E6904601
:108A400061E614465FE64C235DE648460DB0BDE89E
:108A5000F08F00BFF4CE0F00F2CE0F00F6CE0F0065
:108A6000E0CE0F00FECE0F00F8CE0F00FBCE0F00C1
:108A700001F018BD2DE9F84305464FF02003EFF350
:108A8000118683F31288BFF36F8F0E4B0E4F1C6855
:108A9000DFF838804FF00C092CB986F31188BFF34A
:108AA0006F8FBDE8F883D4E90123002D18BF13466A
:108AB0002BB198F8102009FB02F2B85C98472468A3
:108AC000EAE700BFD8020020CC020020A008002066
:108AD00070B5194B1C7CBFF35B8F04F01F030122A0
:108AE0009A40164B610903EB8103D04353E8001F02
:108AF00001EA000543E80056002EF7D1BFF35B8F73
:108B00000A4213D00E4B0F4D8BB10C236343EA186E
:108B1000E85C517803F0AFFB0020FFF7ABFF0C23BC
:108B20005C432A1900232B51C2E9013370BD83F342
:108B30001188BFF36F8FEFE7A0080020E00200204C
:108B400077C20F00CC0200202DE9F041354B0746DB
:108B50001D7C4FF02003EFF3118883F31288BFF3DD
:108B60006F8F0C24304B314E6C431A19195D00295C
:108B70004CD007CA06EB040C8CE8070000221A55FB
:108B800088F31188BFF36F8F0C236B43F218F05CEE
:108B9000002839D07B1C10D0D2F808C0244C254ABC
:108BA0004FF400400021ECFB004100232046FFF77A
:108BB000A7FA0121381A03F0FDFE02F0BFFD0120E3
:108BC000FFF758FFBFF35B8F1B4B6A0903EB820370
:108BD00005F01F0101228A4053E8000F104343E8CB
:108BE00000010029F8D1BFF35B8F144B3BB10C237C
:108BF00003FB05F03318305C597803F030FBFFF7C6
:108C000067FF02F0AFFD0120BDE8F0810146284674
:108C100000F016F80028B3D007C8344484E80700F1
:108C2000AEE700BFA0080020C0020020CC02002058
:108C30003F420F0040420F00E00200205FC20F00E1
:108C40002DE9F04F85B00E4603A900F043F81E4B06
:108C5000039DD3F800A0DFF87480431E1BB203EB22
:108C60004303044605EB83054FF400474FF0000B28
:108C700024B9A146484605B0BDE8F08F6868144A9B
:108C8000C4465946E0FB07C100236046FFF738FAA7
:108C90000190A8680E4AC4465946E0FB07C100236C
:108CA0006046FFF72DFABAF1FF3FA94601D0824591
:108CB00005D9731CDED0019B1844B042DAD9013CBF
:108CC000A4B20C3DD4E700BF040000203F420F00D7
:108CD00040420F0008B9024B0B600020704700BFF4
:108CE000C8CC0F00014802F0F3BF00BFC8CC0F0092
:108CF00038B5044618B90F4B0F485B689847616850
:108D0000B1F5683F0FD0B1F5680F0CD00B4DA942FB
:108D100009D011F4686107D00948214603F041FDEC
:108D200000232360656038BD2068142203F08EFAAA
:108D3000F8E700BFEC00002007CF0F002C5F5CA914
:108D4000E407002008B520B34368B3F5683F10D1AD
:108D500001220368BFF35B8F53E8001F002903D192
:108D600043E800200028F7D1BFF35B8F0DD100202E
:108D700008BD094A93420AD000684FF0FF324FF015
:108D8000FF3302F0A1FA0028F1D00448F0E70448CC
:108D9000EEE76FF4E040EBE72C5F5CA9E98FFFFFA3
:108DA000EA8FFFFF08B5D8B14368B3F5683F10D12B
:108DB00000220368BFF35B8F53E8001F012903D132
:108DC00043E800200028F7D1BFF35B8F0BD10020D0
:108DD00008BD074A934208D0006802F0EFFAF6E7B0
:108DE0006FF4E040F4E70348F2E70348F0E700BF20
:108DF0002C5F5CA9E98FFFFFEA8FFFFF10B50446E7
:108E000018B91D4B1D485B6898476368B3F5683F08
:108E10002FD0B3F5680F2CD0194A934219D123688B
:108E200003BB18484FF0FF324FF0FF33214602F0EA
:108E300073F908B923681BB90F4B13485B6898474F
:108E400020681422002103F001FA4FF46863636084
:108E500008E0B3F5683F0DD83A2B03D040F6BA626C
:108E60009342DED1206803F0DAFC636843F03A03F2
:108E7000636010BD054AF3E7EC00002007CF0F0048
:108E80002C5F5CA9E40700202DCF0F003A00003AC8
:108E900008B5064906484023142203F074FCBDE8D7
:108EA00008400449044802F085BF00BFE4020020E6
:108EB000E4070020D0CC0F00E4CC0F0001491022C1
:108EC0000A60704710ED00E072B6404080F31188F0
:108ED000BFF36F8FBFF34F8F30BF62B6BFF36F8F9B
:108EE000704700BF72B6494081F31188BFF34F8FBE
:108EF00020BF80F3118862B6704700BF40B20028DF
:108F000007DB044A4109012300F01F00834042F8B7
:108F10002130704700E100E0054B420900F01F00DE
:108F200053F82220012303FA00F01040704700BFDD
:108F300000E100E040B20028A8BF00F1604001F16C
:108F40000101B8BF064B4FEA4111ACBF00F56140CB
:108F500000F00F00C9B2B4BF195480F80013704775
:108F600014ED00E030BFFFF7FDBF00BF0B4A08B5AE
:108F70000B4B22F07F029A60BFF34F8FBFF36F8FCE
:108F8000D3F8882022F47002C3F8882002F000F899
:108F900002F00AFD00F0D6F902F03EF800800F0062
:108FA00000ED00E0094A0A499368096859670949D0
:108FB00018674B6843F080534B60002383F311889C
:108FC000BFF36F8F9368586F704700BFA0080020F1
:108FD00010CE0F0000ED00E012498A684FF030001B
:108FE0001044EFF3098C80E8F01F202080F31288F2
:108FF000BFF36F8F0C4F4FF000668A698A603E6046
:10900000106F0023136780F3118804B5104600F039
:1090100035FABDE8044002F1300090E8F01F8CF30F
:1090200009887047A008002004ED00E01EF0040F3E
:109030000CBFEFF30880EFF30980816911F8021C7F
:109040000229FFD001B503F0E0F801BD42F8203C51
:10905000009B42F81C3C0A49019B42F8183C029BC9
:1090600042F8143C21F001014FF0807342F8043CB7
:1090700042F8081C0023203A02650367704700BFCE
:109080003DC00F00094A0346906870B113F1160FF6
:10909000006E05D0A0F140029A4205D8834203D267
:1090A000814228BF0020704700207047A0080020A0
:1090B00008B5094B98600D46144600F0DFF92046CC
:1090C00085F30988002163B681F31188BFF36F8FA0
:1090D0000022002302F0B2FFA008002001B572B602
:1090E0000B4A506900281EBF0021516103F088FB24
:1090F00062B6EFF30580A0F110004FEAC000054909
:10910000014409C99847BDE80140034908470000E8
:10911000A0080020D0CA0F001D910F00044B9968D1
:109120009869884203D003494FF080520A60704723
:10913000A008002004ED00E070B51D4B15469A6AAA
:109140009A6A9A6A9207064622D5586B9A6A14065A
:109150001ED519B19A6A22F080029A629A6A9A6AB6
:109160009A6A134C12F0100F15D19B6A990712D40A
:109170000020A36A0E4A9B0642BF636A23F4005391
:109180006362936A43F0FF03936200232B7070BD08
:109190006FF01500E2E763681A05E9D53146FFF77D
:1091A00071FF0028E4D080F309880220E1E700BFC6
:1091B00000ED00E00D4B9A6A9A6A9A6A920508D50A
:1091C0009A6B9A6A120404D518B19A6A22F4004282
:1091D0009A629A6A9A6AD205044A58BF9B6A936A4D
:1091E000002043F47F4393620870704700ED00E075
:1091F00070B54A4B5B688AB00546C3F30803002686
:1092000086F31188BFF36F8F02F07F40B0F17F4F7C
:1092100011D102F00C0008280DD010074CBF0D46EC
:1092200001260022033B8DF80720032B4DD8DFE8F1
:1092300003F00465696D3546F3E7384BDA6A910748
:1092400043D4DA6A002A40DBDA6A52003DD55A6913
:10925000A96942F480725A61BFF34F8FBFF36F8FD9
:109260005A6931F8021C22F480725A61BFF34F8FA1
:10927000BFF36F8F4DF60272914209D09A6AD2B253
:1092800042B10DF1070201212846FFF755FF0AE020
:109290002C681BE09A6A12F47F4F06D00DF107018B
:1092A0000120FFF787FF044610E09A6AB2F5803F7D
:1092B0000BD39A6A9A6A9A6A9A6A9A6A9A6A9A6AB4
:1092C0006FEA02426FEA12429A6200249DF8073068
:1092D00093B92022294602A802F0ADFF099BBEB136
:1092E000C3F3080222B96FEA53236FEA43230993B9
:1092F00002A9204602F087FF0AB070BD0DF10702F7
:109300000021C1E70DF107010020CAE7034BD0E7B8
:1093100023F4FF7323F00103E9E700BF00ED00E051
:10932000024A536943F010035361704700ED00E0B7
:10933000EFF30880EFF3098101B57246FFF758FF9C
:1093400001BD00BF044800232021C2180133302B87
:1093500082F80013F9D1704700E100E0002080F3AB
:109360001488BFF36F8FFFF783FB00200D4908605F
:10937000BFF34F8F0C4880F3088800F02BF82020B3
:1093800080F3118809484FF40461401880F309887C
:10939000EFF314800221084380F31488BFF36F8F2A
:1093A000FFF7E4FD94ED00E080180020C00A0020E3
:1093B0000749D1F890200023C2F3072218469342B0
:1093C00000DB7047C1F89830C1F8A0000133F6E720
:1093D00000ED00E008B572B6002383F31388FFF7B1
:1093E000E7FF144B4FF0FF32C3F88020C3F884200E
:1093F000C3F88820C3F88C20C3F89020C3F89420C9
:10940000C3F89820C3F89C20C3F88021C3F88421B6
:10941000C3F88821C3F88C21C3F89021C3F89421A4
:10942000C3F89821C3F89C2162B6BFF34F8FBFF3F6
:109430006F8F08BD00E100E0084B9B6883420BD1B1
:10944000EFF3058343B1064B5A6842F080525A60ED
:109450005A6A22F400425A6202F046BAA00800207A
:1094600000ED00E0024B034A0348012100F070B810
:109470000000042000000020F4CC0F00026E054B19
:10948000403A1A60044A4021C3E9011218460121FA
:1094900000F068B80008002000000B15F0B5204E61
:1094A00000258D4239DA446874B353B104F1FF3CAE
:1094B00014EA0C0F2FD11F2C2DD907681CEA070FB7
:1094C00029D1202C0768D0F808C05FFA82FE1ED987
:1094D000B4F1004F1DD8013CB4FA84F4C4F11F0468
:1094E0006400BEF1070F4CEA040C14D827F01F04E7
:1094F000144344F01004C6F89820C6F89C404CF081
:109500000104C6F8A040013201350C30C9E7082437
:10951000E7E73E24E5E76FF015021046F0BD00BF17
:1095200000ED00E0044B0522C3F89420BFF34F8FF9
:10953000BFF36F8F704700BF00ED00E0BFF35F8F98
:10954000024B0022C3F89420704700BF00ED00E0FA
:1095500010B5034C01232278FFF7A0FF207010BD47
:10956000A00A002008B5094A00231278FFF796FFE9
:1095700010F1160F02D0064A072800DD08BDC2F818
:109580009800C2F8A0300130F6E700BFA00A002022
:1095900000ED00E014490868082810B521D8FFF74D
:1095A000CDFF124C49680022904201F10C0105D117
:1095B0000F4B1870FFF7B6FF002010BDC4F89820BD
:1095C00051F80C3C23F01F03134343F01003C4F87D
:1095D0009C3051F8043C43F00103C4F8A030013240
:1095E000E2E74FF0FF30E8E700CD0F0000ED00E0CC
:1095F000A00A002010B54FF02003EFF3118083F391
:109600001288BFF36F8F114A0123C2F840354FF023
:1096100080424FF08051C2F87835D1F83041082CA3
:1096200008D1D1F83411052904D8094C615C09B17D
:10963000C2F838364FF080430122C3F8802580F30A
:109640001188BFF36F8F002010BD00BF00E0014004
:109650006DCF0F0020B1034B800143F00103184789
:10966000704700BFC0CC0F00084B70B5C31A0D4641
:1096700007499B10044659430648402202F01DFE4C
:109680002B4601462046BDE87040184720080020C0
:10969000B76DDBB658CA0F0073B50C4C0C4A4023AB
:1096A000041B00930D460B460A49A410614306466D
:1096B000094802F02FFE011E05DA30462B4602B0A3
:1096C000BDE87040184702B070BD00BF2008002000
:1096D00081C30F00B76DDBB658CA0F00002270B50A
:1096E000012104461046FFF725FC0F4801F062F8FF
:1096F0000E4B984215D102F062FF26690C493046A4
:1097000002F0F6FC00280BDB0125356424690849CA
:1097100004F11C0002F0ECFC002801DBE5640020F1
:1097200070BD6FF00400FBE769970F000000AD0B00
:1097300020CD0F0070B501460C2309484B43C418D7
:10974000D4E90E5600224033A263184402F0A2FD71
:109750002DB132462B460348BDE87040184770BD16
:109760002008002058CA0F0010B1012804D070470B
:10977000034B1B6C5B0701D1FFF7DCBF704700BFD9
:109780002008002008B54FF02003EFF3118183F388
:109790001288BFF36F8F124A136843F00200106003
:1097A000DA0708D481F31188BFF36F8F0120BDE879
:1097B000084002F011BF4FF08043D3F80C24D3F8D7
:1097C0000C34D307EED5074802F064FD81F311880D
:1097D000BFF36F8F0020BDE80840FFF7ABBF00BFAD
:1097E00070080020600800201FB500220123CDE989
:1097F0000223094ACDF800D06B46CDF804D002F020
:10980000B8FD002805DB4FF480420023684601F0D4
:1098100031FE05B05DF804FB9FC30F0010B54FF09B
:109820002003EFF3118483F31288BFF36F8F074A8D
:10983000136823F00201DB07116002D4012002F05B
:1098400007FF84F31188BFF36F8F10BD70080020ED
:109850002DE9F0413849BFF35B8F0746012251E8FB
:10986000003F41E800200028F9D1BFF35B8F33B9F6
:10987000324933484B60CB608A6002F04CFC7B1E5F
:10988000012B2BD8012F07D14FF08043D3F81C3484
:1098900003F00303012B21D002F0ACFF0546F8B919
:1098A000284B1B78E3B14FF080430222C3F8082312
:1098B0000646DFF894804FF08044D4F81834D4F88A
:1098C0001824D20316D503F00303012B01D0012F76
:1098D00010D15DB386F31188BFF36F8FBDE8F081BF
:1098E0004FF02003EFF3118683F31288BFF36F8FDD
:1098F0000125DEE7ADB13046FFF7F4FAD4F81835AC
:10990000002BDAD1D4F80421002AD6D0C4F80431CF
:10991000D4F804310123C4F81835C8F88031A360A5
:10992000CBE70021212001F0BFFFE7E74FF08043A4
:109930000222C3F80423D1E71C0800200C080020F1
:109940003C080020A50A002000E100E030B5406896
:10995000057B01F01F04B2F5001F85B044EA4514F1
:1099600005D1204601F0A8F9002005B030BD002542
:10997000B2F5800FCDE9025514D1B3F1007F0CBFD1
:10998000042305238DF808300023194602AA204637
:1099900000F0D0FF1F4B984239D10121204601F041
:1099A00043F9E1E7B3F1C06F26D0B3F1007F14BFF4
:1099B000012302238DF808308368CB40D907E3D414
:1099C000B2F1A07FE0D16209012A04F01F03124A1C
:1099D00003F5E07318BF4FF0A04252F82330DB07C5
:1099E000D2D40DF107052946204601F0C9F80B4BEA
:1099F000984203D00395C7E70323DBE7284601F02D
:109A00000DF9044B9842F5D06FF00B00ADE76FF005
:109A10001500AAE70000AD0B000300500400AD0BD9
:109A200010B501F0EBF8044668B901F0BFF8084B37
:109A300098420AD10748214601F09CF822460521A8
:109A40000620FFF777FA002010BD6FF00400FBE757
:109A50000000AD0B599A0F00420970B5034602D0C1
:109A6000012A17D070BD0D4E326951680029F9D016
:109A700003F01F0301250C689D400029F2D08A687D
:109A80002A4002D04B68304698472CB123682146C3
:109A90001C46F2E7024EE7E72346F8E788CA0F00C4
:109AA00070CA0F002DE9FF4147683B7B01F01F059D
:109AB00045EA43150E4628460DF10301144601F010
:109AC0005FF814F4403F80460BD1284601F01CF9A2
:109AD0003D4B984503D19DF8030001F099F8002013
:109AE0000CE00023194602AA2846CDE9023300F013
:109AF00021FF354B984204D06FF0150004B0BDE84B
:109B0000F081804503D19DF8030001F081F8A303A3
:109B10004BD540F206332340B3F5837F19D00CD8E0
:109B2000062B17D004D8ABB1022BE5D1042311E0EA
:109B3000B3F5807FE0D101230CE040F20222934292
:109B400027D0B3F5407F26D0B3F5007FD4D10223D0
:109B500000E007238DF8043084F48033C3F300431E
:109B6000E0068DF8053054BFC4F3401303232103EE
:109B70008DF8063011D57A680123B340C2F8083554
:109B8000002201A9284600F083FF0F4B9842A6D07F
:109B9000B2E70523DEE70323DCE7620341BF0123CD
:109BA0007A68B340C2F80C35EAE7E3064FF00003E9
:109BB00054BFC4F3401403241A4601A928468DF863
:109BC000044000F0B7FEE0E70000AD0BF0B54B79C4
:109BD000012B26D0032B21D110258B79032B1DD1EE
:109BE000CE790EB1012E19D10A7912B1022A15D1FE
:109BF0000E220B684468B3F5164F276867D02DD83E
:109C0000B3F5165F66D016D8B3F5966F64D00AD850
:109C1000B3F5967F63D0B3F5167F63D06FF0850000
:109C200054E00025D9E7B3F5166F5ED0B3F5965F23
:109C3000F4D1384B3CE0B3F5E14F59D007D8B3F538
:109C4000615F57D0B3F5964FE8D1334B30E047F61C
:109C50001224A342E2D14FF4000329E0B3F5613F9F
:109C60004AD013D8B3F5963F49D009D84DF6C02451
:109C7000A34246D0B3F5614FD0D14FF46B0317E048
:109C8000B3F5E13FCAD14FF0EB7311E0B3F5612FAB
:109C90003AD008D8214CA34239D0B3F5E12FBDD139
:109CA0004FF0E86304E01E4CA342B7D14FF080535D
:109CB0000469C7F82435436835431B682A43C3F851
:109CC0006C2503C9231D83E803000020F0BD4FF479
:109CD0001D03EDE7134BEBE74FF49E23E8E74FF44A
:109CE000A033E5E74FF41C33E2E74FF41D23DFE731
:109CF0000D4BDDE70D4BDBE74FF06C73D8E70C4BFA
:109D0000D6E74FF46503D3E74FF07063D0E74FF029
:109D10008063CDE700B0130000A04E0090D0030098
:109D200040420F000050270000C0750000F03A00CC
:109D300000903A012DE9F743476806693C68002125
:109D4000C4F800153060D7F80C90804601AA484648
:109D500002F014FC051E54DB019BD9F80020197990
:109D6000186800F0CBFA051E4BDB311D4046FFF7AB
:109D70002DFF0546002844D17B6899071AD506F1C6
:109D8000180001F0C3F8224B98423ED1337EDB002D
:109D900003F1804303F5F83304F10C0204F59071EC
:109DA000C3F81015C3F81425327E01239340194AD5
:109DB000C2F804350823C4F800353B7A53B9C4F817
:109DC0001031D4F810317369C4F834350123C4F864
:109DD000383523607B689A075CBF4FF48073C4F802
:109DE00004337B68DB0644BF4FF48003C4F80433BC
:109DF0003369C4F844350023C4F848350123A3600F
:109E0000E360284603B0BDE8F0836FF00405F8E78F
:109E10000000AD0B00F00140F8B5044607690D469F
:109E200002F0E8FCB0B92E4B1B789BB16426606849
:109E300002F030FB00BB012002F0BFFB013EF6D177
:109E40000021212001F030FDF0E786F31188BFF3F7
:109E50006F8FF5E74FF02003EFF3118683F312883D
:109E6000BFF36F8F6068314602F014FB90B986F340
:109E70001188BFF36F8FEDE74FF02003EFF31186EA
:109E800083F31288BFF36F8F6068314602F002FBE4
:109E90000028DAD03B691D70626838691368C3F81E
:109EA00044050120C3F848050020C3F82001D3F879
:109EB0002051C3F858015268D3F85801D20608D58A
:109EC000626812680820C2F800054FF48002C3F8E7
:109ED000042301229A6081F31188BFF36F8FF8BDCC
:109EE000A50A002070B5012383400E4ABFF35B8FA3
:109EF000DC4352E8001F01EA040542E80056002E48
:109F0000F7D1BFF35B8F4FF4803282400648C0F830
:109F10000823BFF35F8FBFF36F8F0B4214BF012085
:109F2000002070BD900800200010014070B40E4960
:109F3000D1E90034D01AC31844F1000422F07F465E
:109F4000C1E90034A6F50013B3F5400F09D2074B61
:109F50001B681A0A1B069C19054B42F10005C3E950
:109F6000004570BC01F0F6BDB80100209408002047
:109F7000C001002011B3BFF35B8F0123104A83405F
:109F800052E800CF4CEA030C42E800C10029F7D1A7
:109F9000BFF35B8F0B4A4FF480338340C2F8043326
:109FA000094BBFF35B8F1B68BFF35B8FC340DB07BD
:109FB00042BF064B4FF40032C3F80021704700BF88
:109FC00090080020001001408C08002000E100E013
:109FD0000D4B1868010A0006BFF35F8F0B4BD3F8D7
:109FE0000435181841F10001B3F5801F0AD2084B5F
:109FF000D3E90023904271EB030303D210F1807088
:10A0000041F10001704700BF94080020001001409A
:10A01000C00100202DE9F74F16461F460446FFF702
:10A0200061FF0090FFF7D4FFB04271EB070351D2FC
:10A030003A4B301A67EB0101984271F100016AD284
:10A04000374B03EB0413D3E902239F4208BF964228
:10A050004ED034494FF4803904F1500509FA04F91F
:10A06000AD00C1F848932046ADB202F07BFA26F06D
:10A070007F4B05F1804504F5A8732B4A019305F544
:10A080008835DC464FF0030A019B2CF07F4041F8F5
:10A090002300C1F84493D1F804856FF00200A0EBCF
:10A0A0000800604420F07F40904221D9286860B1C8
:10A0B000D1F80485A8EB0B0020F07F40B0F5000F2D
:10A0C00016D9204602F04EFA174A0AEB080C0AF19C
:10A0D000010AD9E70123154ABFF35B8FA34052E879
:10A0E000000F184342E800010029F8D1BFF35B8F4D
:10A0F0000B490C98230101EB0412C2E90267C85016
:10A100000D9B5360002520460099FFF733FF28463A
:10A1100003B0BDE8F08F6FF01505F4E70100800093
:10A12000A801002000100140FDFF7F008C080020E6
:10A1300073B5194B194D00244FF0FF304FF0FF312C
:10A14000C5F80845C3E902014FF48033C5F804336C
:10A15000134B02264FF400320121C5F8046311208D
:10A16000C3F880212246FEF7E5FE1120FEF7C6FE69
:10A170000C4A0123AB602B6013600B4B0B4A00931E
:10A18000019400232046FFF745FF3046FFF760FBB0
:10A19000204602B070BD00BFA801002000100140A1
:10A1A00000E100E0900800202D9F0F00FFFF7F00DE
:10A1B0002DE9F7432F4CD4F8043399070BD5D4F885
:10A1C000043143B12C4A0023C4F80431D4F80431DB
:10A1D000136801331360D4F80433DA032AD5BFF3CC
:10A1E0005B8F264B53E8002F22F0010143E800105B
:10A1F0000028F7D1BFF35B8FD30702D4D4F84031E6
:10A20000C3B10025C4F84051D4F84031FFF7E0FE57
:10A210004FF02003EFF3118283F31288BFF36F8FA7
:10A22000174BD3E90267B042B94106D282F31188D5
:10A23000BFF36F8F03B0BDE8F0834FF0FF384FF0EE
:10A24000FF39C3E90289D3E900101D604FF4803360
:10A25000C4F84833C4F84051D4F8403182F311882F
:10A26000BFF36F8F0029E5D0009032463B46284669
:10A270008847DFE700100140940800208C08002088
:10A28000A8010020431C13B522D0012822DD124A68
:10A29000124B9042D4BF04461C46FFF799FE104B68
:10A2A0000E49D3E90023801AB0F5000F28BF00241F
:10A2B00004448C4228BF0C46A2180A4900914FF072
:10A2C0000000019043F10003FFF7A4FE02B010BDAF
:10A2D000024CE2E70124E0E7FEFF7F00FFFF7F0082
:10A2E000B80100202D9F0F0008B5FFF771FE024B4B
:10A2F0001B68C01A08BD00BFB80100202DE9F0415D
:10A300005A4E00EB81010127814202D10020BDE8B5
:10A31000F081046804F07F03C4F343257F2B4FEAE8
:10A32000144408BF4FF0FF33222C00F29B80DFE87B
:10A3300004F0122429442C40449999999947709922
:10A340009999999999999999737B7E819999998409
:10A350008A8D90939600C2F80C354FEA531CBCF1DD
:10A36000010F03F01F0414BF4FF0A04CB44607FACE
:10A3700004F4CCF80845012402E0C2F814350024A6
:10A38000A64624E0C2F80835E7E7C2F808350024FD
:10A390004FEA531EBEF1010F14BF4FF0A04EB64658
:10A3A00003F01F0C07FA0CFCCEF80CC54FF0010EA1
:10A3B0000DE0C2F80C350124EAE7C2F81035DEE7FB
:10A3C000C2F80835002DDAD10024A646062550F83B
:10A3D00004CB0CF40058B8F1000F4FEA0525CCF37C
:10A3E000C11803F01F0C4FEA53131CBF01244FF098
:10A3F000000E45EA8805012B0CBF33464FF0A04301
:10A4000045EA0E050CF5E07C45EA440543F82C507E
:10A410007AE7C2F80C35D5E7C2F860350468C4F3B2
:10A420008034002CC7D098E7C2F86435F6E7C2F84C
:10A430006835F3E7C2F86C35F0E7C2F8243501243B
:10A440004FF0000EC3E7C2F8283586E7C2F8303572
:10A45000F5E7C2F83435F2E7C2F83835EFE7C2F86D
:10A460003C35ECE76FF0850051E700BF000300507A
:10A470004FF08053D3F83021082A06D1D3F8343175
:10A48000052B02D8024AD05C70470020704700BFFD
:10A49000E2CF0F00024AD2F80034002BFBD0704705
:10A4A00000E0014010B54FF08053D3F83021082A66
:10A4B0004ED14FF080420021C2F80C11C2F81011A9
:10A4C000C2F8381502F54042D3F80414C2F820153A
:10A4D000D3F80814C2F82415D3F80C14C2F82815C0
:10A4E000D3F81014C2F82C15D3F81414C2F8301590
:10A4F000D3F81814C2F83415D3F81C14C2F8401558
:10A50000D3F82014C2F84415D3F82414C2F848151F
:10A51000D3F82814C2F84C15D3F82C14C2F85015EF
:10A52000D3F83014C2F85415D3F83414C2F86015B7
:10A53000D3F83814C2F86415D3F83C14C2F868157F
:10A54000D3F84014C2F86C15D3F84434C2F870350F
:10A55000FFF78EFF18B13B4B3B4AC3F88C26FFF741
:10A5600087FF18B1394BFB22C3F81825FFF780FF8E
:10A5700070B14FF080414FF08053D1F8E42ED3F802
:10A58000583222F00F0203F00F031343C1F8E43EE8
:10A59000FFF76EFF20B12E4B4FF40072C3F8402638
:10A5A0004FF08053D3F83031082B1AD14FF080434D
:10A5B000D3F80024D20744BF6FF00102C3F800248F
:10A5C0004FF08053D3F83431052B02D8214AD35CA5
:10A5D0003BB14FF01023D3F808224FF08043C3F86B
:10A5E00058254FF01023D3F80022002A03DBD3F8BC
:10A5F0000432002B22DA184901234FF01020C1F851
:10A6000004351224FFF746FFC0F80042FFF742FF6F
:10A61000C0F80442FFF73EFF0023C1F80435FFF7FE
:10A6200039FFBFF34F8F0D490D4BCA6802F4E0624A
:10A630001343CB60BFF34F8F00BFFDE7094B0A4ABE
:10A640001A6010BD005000404881030000F0004037
:10A6500000900240DCCF0F0000E0014000ED00E080
:10A660000400FA05600000200090D00370B50125B9
:10A670000268BFF35B8FB2FA82F3C3F11F03DBB250
:10A6800005FA03F422EA040450E8006F964204D16C
:10A6900040E8004CBCF1000FF6D1BFF35B8FE7D16F
:10A6A00001480B7070BD00BF0000AD0B10B5036812
:10A6B000CB40DB0714D401238B400268BFF35B8FD0
:10A6C00043EA020150E8004F944204D140E8001CE4
:10A6D000BCF1000FF6D1BFF35B8FEED1014810BD86
:10A6E0000148FCE70000AD0B0400AD0BF7B50446D4
:10A6F00018B1012822D003B0F0BD4FF080430222F0
:10A70000C3F80823C3F80401D3F804210122DA6056
:10A71000074601238DF8073042F210754FF080464E
:10A72000CCB1012CE7D1C7B3D6F80C3403F0010348
:10A730003B70D6F80C34DA0321D516E04FF0804395
:10A740000022C3F80803C3F80021D3F800215860A1
:10A750000DF10707DDE7B7B1D6F8183403F00303AE
:10A760003B60D6F81834D803C5D59DF807000128FA
:10A7700003D101F022FF013DD2D1012CBBD10C4B02
:10A7800000225A71B7E7D6F81834D903B3D501209F
:10A7900001F013FF013DF6D1ADE7D6F80C34DB0331
:10A7A000EDD5012001F009FF013DF6D1E7E700BF3B
:10A7B00098080020044B1A7922B9012218609A8067
:10A7C0000248704702487047980800200000AD0B0F
:10A7D0000C00AD0B10B54FF08043D3F800216AB1E7
:10A7E0000022C3F80021D3F800210122C3F8082376
:10A7F000114B587910B95A711B6898474FF0804334
:10A80000D3F8042172B10022C3F80421D3F8042143
:10A81000D3F81824D3F81814920704D10122C3F8EE
:10A8200018259A6010BD0222C3F80823024BBDE828
:10A8300010401B680120184798080020036803F0A7
:10A840001F025B09012B0260024818BF4FF0A040B5
:10A85000704700BF00030050034B083033F810006E
:10A86000C0F34010704700BF6400002070B500F1D5
:10A8700008030C4C34F81330DA0505460E4607D5AC
:10A88000C3F3432304EBC30254F8333052689847B0
:10A89000A3682BB1E26831462846BDE870401847EE
:10A8A00070BD00BF6400002010B4124A083032F8B6
:10A8B0001030D9051BD5C3F3432123F4F85322F8F4
:10A8C000103002F10E04002034F8023F13F4807FB0
:10A8D00003D0C3F34323994209D001303028F3D188
:10A8E000002342F83130044810BCFFF7DFBE10BC33
:10A8F000704700BF64000020D800002038B5024631
:10A90000FFF7AAFF094C02F1080540B134F81530F1
:10A9100007495B0B03F5A273002041F823001046A2
:10A92000FFF7C2FF002324F8153038BD6400002073
:10A93000006000402DE9FF41044616461D4601B364
:10A940004E4F00F1080837F818309B0702D5FFF783
:10A9500083FF10BB0023CDE900338DF80E308DF856
:10A960000F300DF10F020B4620460DF10E0101F0E4
:10A9700071FE37F8183023F0020343F0010327F883
:10A98000183046B33D4B96F800C0726804F10807D2
:10A9900033F81710880702D5AAB139481DE021F015
:10A9A0002001C904C90C23F8171062B1BCF1030FD0
:10A9B000F3D872681678BCF1000F11D1314A06F550
:10A9C000A27642F826C033F8172022F01C0242EA91
:10A9D0008C0223F8172045BB2B4804B0BDE8F0815A
:10A9E000B20002F1804202F5C04241EA4631D2F89B
:10A9F000100520F00300C2F81005D2F8100520F46D
:10AA00004F3020F44070C2F810052002D2F810E553
:10AA100000F47C5040EA0C4040EA0E0041F0200176
:10AA200023F81710C2F81005CDE7D5E900672046D6
:10AA3000FFF73AFF002ECFD0104DD5E90023964204
:10AA400001D19F4218D011480DF10F01FFF70EFE02
:10AA50000D4B9842C1D19DF80F2045F8326005EBAF
:10AA6000C20308345F6035F8143043EA422343F4EC
:10AA7000807325F81430AFE70022EEE76400002071
:10AA80000400AD0B006000400000AD0BD8000020BA
:10AA9000F0B5044685B0154619B3334E00F10807EA
:10AAA00036F81720930703D4FFF7D6FE002858D1B5
:10AAB00012F01C0F02D04B78012B52D001238DF8DD
:10AAC0000F300023CDE900134A1C8B1C20460DF1EA
:10AAD0000F0101F0BFFD36F8173043F0030326F8ED
:10AAE000173015B9214805B0F0BD1F4E04F1080715
:10AAF00036F81700830734D595F800C06146890001
:10AB000020F0200001F18041C00401F5C041C00CDB
:10AB100026F817000023C1F810356A78002AE1D022
:10AB2000D1F81035AD7823F4991323F4F853C1F814
:10AB30001035D1F810E5230203F47C53120402F41B
:10AB4000403243EA0E0313432A0502F4801240EA1E
:10AB50004C30134340F0200026F81700C1F81035A0
:10AB6000C0E70348BFE700BF640000200000AD0B52
:10AB70000400AD0B014BC3E90201704764000020E3
:10AB800008B50246FFF768FE38B1054B05480832A4
:10AB900033F812305B0B0B7008BD0348FCE700BFB5
:10ABA000640000200000AD0B0400AD0B38B50F4C65
:10ABB00094F87850BDB96022294604F1100001F0E4
:10ABC00045FB0620FEF79AF9094B0A48C3F87C5169
:10ABD000D3F87C214FF00042C3F80423012384F80A
:10ABE0007830636738BD0448FCE700BF640000208C
:10ABF000006000400000AD0B0500AD0B034B93F867
:10AC00007800003818BF0120704700BF64000020A2
:10AC100001460148FFF74ABDD40000200146014823
:10AC2000FFF724BDD400002037B50446FFF714FE1B
:10AC300004F108021E4B33F81230E8B113F002059C
:10AC40001AD15B0B9A0002F1804000F5C24002F17C
:10AC5000804202F5C04205600068D2F8100540F05D
:10AC60000100C2F8100529B1012202FA03F3114ACA
:10AC7000C2F8043303B030BDC3F38203042B12D0F7
:10AC8000052B12D001A80194FFF7D8FD019BD0F845
:10AC90001015D94001F001010231204603B0BDE892
:10ACA000304001F020BD0321F7E70221F5E700BFA6
:10ACB000640000200060004008B50246FFF7CCFDAC
:10ACC000C0B102F108010E4B33F81130990711D4CD
:10ACD0005B0B01229A409B000A4903F1804303F574
:10ACE000C043C1F80823D3F8102522F00302C3F8AB
:10ACF000102508BDBDE808400021104601F0F3BC56
:10AD0000640000200060004013B50E4B00F1080203
:10AD1000044633F81230DB0711D5FFF7CDFF20468C
:10AD2000FFF7ECFD01A80194FFF788FD019B03F5F7
:10AD3000E073022240F82320034802B010BD03480C
:10AD4000FBE700BF640000200000AD0B0400AD0B6A
:10AD50002DE9F04F684B69486949002687B0012208
:10AD600034461D6835B1D0F8045315421EBF1C602F
:10AD70001D68164304338B424FEA4202F1D1DFF8DB
:10AD80007C91D9F87C31002B00F099804FF0A043E2
:10AD9000D3F820250492C3F82025D3F82028059263
:10ADA000C3F820284FF000080DF1100A4FEA4813AD
:10ADB00000934FF0010B49E0009B524A94FAA4F42F
:10ADC000B4FA84F41C44E00804F10803039432F854
:10ADD00013701AF8003004F007020BFA02F223EAAB
:10ADE00002030AF8003003A8FFF728FD039B03F5D0
:10ADF000E073B90850F82330C7F382054A072F469D
:10AE0000C3F301432CD520463946DDB2FFF72EFDB2
:10AE100003A80394FFF712FD039B03F5E07350F8BA
:10AE20002330C3F301439D4207D10021204601F0A6
:10AE30005AFC2946204601F056FC03A80394FFF76C
:10AE4000FDFC039B0BFA03F3C0F820355AF82840A9
:10AE5000002CB1D1B8F1000F1DD14FF00108A5E7CA
:10AE6000022B0CD10321204601F03DFC05F0050327
:10AE7000012BE2D139462046FFF7F8FCDDE702213D
:10AE80002046019301F02FFC032DF3D0019B032BEF
:10AE9000D3D1022DEDE74FF0A042C9F87C41D9F89B
:10AEA0007C311949D2F820350493C2F82035D1F805
:10AEB000202505921343C1F820257FF473AF0124A8
:10AEC00016B907B0BDE8F08F96FAA6F3B3FA83F38C
:10AED00004FA03F29B0003F1804303F5C04326EA22
:10AEE0000206D3F81005D3F81015C0F30520C1F3FE
:10AEF0000141FFF7BBFCE3E7006100400060004058
:10AF00002061004064000020000300500146014819
:10AF1000FFF7ACBBE00000200F4B70B553F82040AA
:10AF2000013053F82060A64200D870BDD4E9003546
:10AF3000284698476DB138B10028B8BF4042EB6849
:10AF4000FF28A8BFFF201870EA68537843F0010378
:10AF500053700834E7E700BF14CE0F0008B50A4B62
:10AF6000012203201A70FFF7D7FF01F047FD0420EC
:10AF7000FFF7D2FF00F030F901F04FF8034A137BDE
:10AF800023F00103137308BDA50A0020400200202E
:10AF900008B50348034A0021121A01F0DAFB08BD84
:10AFA000A8010020A80A002070B5164E164D1749BA
:10AFB000782386B003FB006601220023CDE9042339
:10AFC0000F22CDE902320193142303FB00550446FE
:10AFD0004FF4C07000FB04110D4B00954FF4A072AC
:10AFE000304600F0C7F8737B0A4AEE6023F0040392
:10AFF00073734FF4046304FB033313442C746B60CA
:10B0000006B070BDC8010020A00800200013002079
:10B0100091B20F00C00A002080B50020A4B0FFF755
:10B020007BFF2D4B83F308882C4D2D4E6B692D4FE4
:10B0300043F400736B610024E02385F82230EC7741
:10B040002C766C76AC7685F820406B6A43F4E0236E
:10B050006B6285F82340FEF763F9FDF72FFF4FF091
:10B06000FF33AB62EB62FEF795FAFEF7FBF940F2B5
:10B070000113ADF8243006ABB360CDE91E44219432
:10B0800001F0BDFC0120FFF747FF0220164DFFF73E
:10B0900043FF00F083FB154BB56105930123144971
:10B0A0000094CDE903434FF480623B46CDE901446F
:10B0B000284600F05FF86A7B064622F00402284624
:10B0C0006A7301F00FFC2046FFF76EFF3A463146E7
:10B0D0002846FDF7EDFF00BF0013002000ED00E063
:10B0E000A00800205DAF0F004002002008D00F0034
:10B0F0008014002038B5064C064D0020AC4200D329
:10B1000038BD204601F029FB0028F9DB1C34F5E7A7
:10B11000560100205601002073B50C464FF0200563
:10B12000EFF3118185F31288BFF36F8F45695DB12D
:10B1300025602B684361836901338361002081F3BB
:10B140001188BFF36F8F11E052EA030603D1256027
:10B150006FF00B00F3E7CDE900230246083000F062
:10B160002DFA18B9024B9B685B69236002B070BD71
:10B17000A00800202DE9FF410E9E067304264673A9
:10B180000D9E867300F158050F46D61DC0E9165571
:10B190000C9A002526F007064037C0E90655C0E99D
:10B1A00018768560C573856606F1400802920B9A91
:10B1B000019288440A9A009242460446FDF746FFEF
:10B1C000044B65659B6803B1DB6EE366404604B0E3
:10B1D000BDE8F081A00800202DE9F043294C2A4D5C
:10B1E00087B02646AE4204F130040FD300F0A6FA31
:10B1F000244CDFF898904FF4004640F2E737AC4219
:10B2000020D307B0BDE8F04300F0ACBA54F8043CDA
:10B21000059354F8103C049354F8143C039354F8E9
:10B22000183C029354F81C3C019354F8203C0093C2
:10B2300054E90A2354E90C01FFF79CFF54F8303C11
:10B240005E65CEE7636A5A1C0DD023EAE3730021E2
:10B250003846C3FB060151EAC333D4F8008004D159
:10B26000404600F01BFA3034C9E74FF47A720023ED
:10B27000FCF746FF02460B4608F11800494600F06D
:10B28000F3FBF0E750CC0F0050CC0F00A1C80F002B
:10B2900008B50B4C0B4D4FF02002EFF3118382F3F6
:10B2A0001288BFF36F8F01F075FB2B78606113B9C3
:10B2B000FDF70AFEEFE7FDF747FC0028EBD1F7E7C3
:10B2C000A0080020A50A00202DE9F34104461746F6
:10B2D0001E464FF02003EFF3118883F31288BFF36B
:10B2E0006F8FC368334A7BB180689168884219D0F8
:10B2F00057EA060318D188F31188BFF36F8F6FF0F8
:10B300000F0002B0BDE8F081916891F90E10216143
:10B310000133E3609368A36088F31188BFF36F8FF4
:10B320000020EEE72169F2E791F90E1090F90E3056
:10B330009942A8BF19466FF07E029142B8BF1146EC
:10B340008B422EDD01F063FA0546CDE900761A48FE
:10B350002246414600F032F90028E1D04FF02003A8
:10B36000EFF3118683F31288BFF36F8FA068D0B11B
:10B37000236821699C420AD04BB193F90E3099425F
:10B38000A8BF19466FF07E039942B8BF194601F075
:10B390003EFA40B10848314600F06EF96FF00A00FD
:10B3A000AFE70025D1E7002DF4D186F31188BFF374
:10B3B0006F8FF3E7A0080020A60A002038B5836845
:10B3C00004466BB3194A926893422CD1C368012B8F
:10B3D00003D9013BC360002038BD4FF02003EFF3D9
:10B3E000118583F31288BFF36F8F0169806801F0C4
:10B3F0000EFA204601F086FAA06058B190F90E20AE
:10B4000022610022426701F06DFA0948294600F0E6
:10B4100033F9E0E7E06085F31188BFF36F8FDAE777
:10B420006FF01500D8E74FF0FF30D5E7A0080020F7
:10B43000A60A002038B504464FF02003EFF311852B
:10B4400083F31288BFF36F8F01F05CFA48B10022DA
:10B45000426701F047FA29460548BDE8384000F048
:10B460000BB9D4E902329A4218BF0133A360F2E764
:10B47000A60A002013B54FF02004EFF3118184F3E6
:10B480001288BFF36F8F846844B1013C846081F3FC
:10B490001188BFF36F8F002002B010BD52EA030481
:10B4A00006D181F31188BFF36F8F6FF00F00F3E7C0
:10B4B000CDE900230246024800F080F8ECE700BF27
:10B4C000A60A00200A4A114651F81C3F8B4200D0C0
:10B4D00003B9D36848B99168487BC00605D198691B
:10B4E00018B9C8897F2888BF0B469361704700BF91
:10B4F000A008002008B590F90D20437B002A0146E2
:10B5000004DA03F07F03437301F090F9044B986869
:10B51000431A58425841BDE80840FFF7D3BF00BF67
:10B52000A008002070B515461C46064601F090F9AB
:10B53000B4F1FF3F08BFB5F1FF3F08D02A462346CC
:10B5400006F118000249BDE8704000F08DBA70BDE8
:10B55000A1C80F0070B490F90D30427B002B29DB9D
:10B56000D30627D183692BBB134962F07F02427354
:10B570000A4652F81C4F944218BF23460C6A23B95E
:10B58000C0E90024206008620CE090F90E5093F9A5
:10B590000E60B5420AD0AE4208DD5A68C0E90032FA
:10B5A0001060586070BC0020FFF78CBF9C42E7D051
:10B5B0001B68E4E770BC7047A008002038B50C4653
:10B5C0001146DDE904234FF02005EFF3118085F3E8
:10B5D0001288BFF36F8F04488068FFF7A3FF2046EF
:10B5E000BDE83840FDF7DEBCA0080020F8B50446F1
:10B5F0004FF02003EFF3118683F31288BFF36F8FB0
:10B60000437BDA0649B219D18569BDB903F07F03DE
:10B61000437301F00BF9437B164A817363F07F0398
:10B620004373134653F81C0F984218BF0546106A1F
:10B630005DB9C4E900300460146211E0A173002018
:10B6400086F31188BFF36F8FF8BD95F90E70B9427C
:10B650000BD08F4209DD6B68C4E900531C606C603D
:10B660000120FFF72FFF0120EAE7A842E1D02D6873
:10B67000DEE700BFA008002049B9EFF3058030B92C
:10B68000054B9A699B689A4201D0FDF78BBC81F308
:10B690001188BFF36F8F7047A008002010B54FF0DE
:10B6A0002002EFF3118482F31288BFF36F8F427B85
:10B6B000510704D484F31188BFF36F8F10BD22F0BB
:10B6C00004024273FFF746FF21460248BDE81040DE
:10B6D000FFF7D2BFA60A002070B50446183001F06B
:10B6E00043F94FF02003EFF3118683F31288BFF381
:10B6F0006F8F94F90D20637B002A05DA03F07F0336
:10B700006373204601F092F80B4D637BA86843F009
:10B7100010036373031B58425841FFF7D3FE86F3AF
:10B720001188BFF36F8FAB68A34203D1BDE87040AF
:10B7300001F010B970BD00BFA00800204FF0200339
:10B74000EFF3118183F31288BFF36F8F044B9A6874
:10B75000D37B013BD37381F31188BFF36F8F7047A5
:10B76000A008002010B54FF02003EFF3118483F3FD
:10B770001288BFF36F8F084B9A68D37B0133D37362
:10B780000020FFF79FFE84F31188BFF36F8FBDE8A1
:10B79000104001F0DFB800BFA0080020024B03F109
:10B7A0001C02C3E907227047A0080020F8B54FF03B
:10B7B0002003EFF3118583F31288BFF36F8F1949CC
:10B7C0008868437B03F07F03437301F02FF88B6895
:10B7D0005A7B084662F07F025A7350F81C2F0C6A9D
:10B7E000824208BF002222B9C3E9000423600B6231
:10B7F0000CE093F90E6092F90E70BE420ED0B74283
:10B800000CDD5168C3E900210B6053600120FFF794
:10B8100059FE2846BDE8F840FDF7C4BBA242E3D07C
:10B820001268E0E7A008002050EA01032DE9F0418A
:10B8300005460E4603D1FFF7B9FF00202AE0831C1E
:10B8400071F1FF3328DB01F0D1F82C184FF0200301
:10B85000EFF3118883F31288BFF36F8F104FB8682E
:10B86000FFF748FEB8680F492A463346183000F003
:10B87000FBF8BA68537B43F0100353734046FDF75F
:10B8800091FB01F0B3F8201A63EB0303012873F175
:10B890000003D2DBBDE8F0816FF00104241AD5E784
:10B8A000A0080020A1C80F00B1F1FF3F08BFB0F110
:10B8B000FF3F08B506D1084B9868FFF70DFF4FF022
:10B8C000FF3008BDFFF7B0FF4FF47A7380FB03032E
:10B8D000C00B40EA4340F4E7A0080020014B986801
:10B8E000704700BFA00800202DE9F04104464FF04A
:10B8F0002003EFF3118683F31288BFF36F8F037B6E
:10B90000D9070BD586F31188BFF36F8F404080F3C2
:10B9100011884FF0040002DFBDE8F081437B1A0775
:10B9200004D586F31188BFF36F8FF5E723F020026B
:10B9300042F00801D20920D14173A36813B1204617
:10B9400000F07CFF04F1180001F00EF804F1580734
:10B950004FF00008A56DBD4200D0B5B90120FFF73A
:10B96000B1FD104B9B68A342DBD1EFF30583002BA5
:10B97000D7D13046FDF716FBD3E703F05F0343F062
:10B980000803437300F052FFD7E7284600F056FF44
:10B9900005F1180000F0E8FFC5F874802846FFF7AD
:10B9A000D9FDD7E7A008002008B50648064A074990
:10B9B000121A00F0D0FEBDE80840054A05490648C5
:10B9C00000F0C9BE00000020A801002010D00F0028
:10B9D0000000000010D00F0000000020034B1B6887
:10B9E0000BB9FEF781BC0020704700BFC4080020DF
:10B9F00010B50E4B1C689C4204D1FFF7EFFF6FF0AF
:10BA0000004010BDFFF7EAFF002CF8D0D4E9043263
:10BA10001B1A62EBE072B3F1004F72F10001EEDA33
:10BA2000002AACBF18460020EBE700BFE40000206E
:10BA300030B570B10B4B5B6898420AD0036843B1D4
:10BA4000D3E90421D0E90445121941EB0501C3E90A
:10BA50000421D0E9003213605A600023C0E90033AA
:10BA600030BD00BFE4000020B3F1FF3F08BFB2F1DA
:10BA7000FF3FF8B504461D4616465CD081604FF086
:10BA80002003EFF3118783F31288BFF36F8F013226
:10BA900075F1FF3324DA2D49D1E900206FF001035D
:10BAA0009B1A4FF0FF3262EB00009E1B60EB05001B
:10BAB000012E70F1000301DA01260020C4E90460C0
:10BAC000234ED6F800C07568B44508BF4FF0000C8F
:10BAD000BCF1000F0DD1C4E900652C6074601CE05E
:10BAE000FFF77CFF013645F10005361845EBE070A5
:10BAF000E4E7DCE90420D4E90431934271EB000E61
:10BB00001ADAD21ADCF8043060EB0100CCE9042028
:10BB1000C4E900C31C60CCF804403368B34206D0CB
:10BB20009C4204D1FFF764FF0021FEF7ABFB87F3D3
:10BB30001188BFF36F8FF8BD9B1A61EB0001AC4514
:10BB4000C4E90431C7D0DCF800C0C1E7B802002066
:10BB5000E40000202DE9F84303464FF02002EFF304
:10BB6000118482F31288BFF36F8F254FDFF8949012
:10BB7000D9F80000DFF890C03B604845DCE9001EC2
:10BB80004FEAE3750CD058B1D0E90486434575EB14
:10BB9000060217DAB8EB030266EB0506C0E90426D5
:10BBA00059184EEB0505CCE9001500253D60FFF75F
:10BBB0001FFF2946FEF766FB84F31188BFF36F8FE2
:10BBC000BDE8F88318EB01014EEBE873CCE90013F4
:10BBD00000220023C0E90423FFF72AFF84F3118821
:10BBE000BFF36F8F836898474FF02003EFF3118402
:10BBF00083F31288BFF36F8F3B68A3EB0803B7E7AB
:10BC0000C4080020E4000020B802002010B54FF066
:10BC10002003EFF3118483F31288BFF36F8FFFF7D4
:10BC2000DDFE064A0346D2E90001181841EBE37134
:10BC300084F31188BFF36F8F10BD00BFB8020020DE
:10BC400010B50A4C23681BB101232360002010BDEE
:10BC500000F0E6F80028F7D00138062803D8044B96
:10BC600053F8200010BD034810BD00BFC8080020D5
:10BC70002CCE0F00FE8FFFFFBFF34F8F0549064B01
:10BC8000CA6802F4E0621343CB60BFF34F8F00BF7A
:10BC9000FDE700BF00ED00E00400FA0510B4094B19
:10BCA00009490A4C4FF0FE32C3F800244968C3F832
:10BCB0000424C3F80824C3F80C240023C4F8003576
:10BCC00010BC084700B00250EC00002000A0025059
:10BCD000D0E90012014BC3E900127047EC000020CC
:10BCE00010B5044650B1636813F0685F05D0064A8A
:10BCF000934202D000232360626010BD034B0448CE
:10BD00005B689847EFE700BF2C5F5CA9EC00002060
:10BD100048CE0F00C8B143680D4A934213D013F0C8
:10BD2000685F0ED0012350E8002F194640E8001C40
:10BD30009CF0000FF7D1012AF5D0BFF35F8F0020F0
:10BD4000704704487047044870476FF4E0407047FC
:10BD50002C5F5CA9E98FFFFFEA8FFFFF80B143688A
:10BD6000094A93420AD013F0685F05D0BFF35F8F92
:10BD70000023036018467047044870470448704722
:10BD80006FF4E040704700BF2C5F5CA9E98FFFFFB4
:10BD9000EA8FFFFF10B5044620B1044B6360002218
:10BDA000226010BD0248FFF779FFF6E73A00003A3B
:10BDB00070CE0F0070B5D0E90023154C154D6360AF
:10BDC000D0E90230C4E902302260134B08681860E1
:10BDD0004868586088689860D1E90301D8601961A3
:10BDE000D5F8183113F0685F10D00C49C5F8BC11B4
:10BDF0000023C5E9453105F58A70C5F8B83190478B
:10BE0000236805F5DC70BDE87040184770BD00BFC1
:10BE1000FC000020E00800200C0100202C5F5CA941
:10BE200038B500F02FF820B1032400F063F8204665
:10BE300038BD00F031F898B900F0ACF898B90F4D62
:10BE4000D5F828391B0EF02B08D1D5F8242A0C4B35
:10BE50009A420AD0072400F017F8E6E70624FAE72A
:10BE60000424204638BD0024F5E7012000F092F8B4
:10BE700004460028F7D1C5F80C0AD8E700B00250F4
:10BE80000000E0200020704700207047014BC3F8FD
:10BE9000040A704700B0025010B5114800F048F88D
:10BEA00000B110BD0F4800F043F80028F9D10E4C46
:10BEB000204600F03DF80028F3D10C4B0C481C60E4
:10BEC00000F036F801460028EBD100F02DF80446CA
:10BED00008B1204610BD00F03FF82046FAE700BF49
:10BEE00044010020380100204001002048010020CA
:10BEF0003C01002008B5084800F024F8074800F08D
:10BF000021F8074800F01EF8064800F01BF8BDE8CD
:10BF1000084000F00BB800BF4401002038010020A9
:10BF2000400100203C01002000207047704700BF06
:10BF300008B5034B02681B6810689847002008BDCD
:10BF4000FC00002008B5034B02685B681068984746
:10BF5000002008BDFC00002070B5094C094D206987
:10BF6000AB68984718B1084B08485B689847084A7F
:10BF7000EB68206900211160BDE87040184700BFE0
:10BF80000C010020FC000020EC00002094CE0F00EB
:10BF9000DC080020F8B51A4D1A4E0446B26828692C
:10BFA0009047E8B9184F3B684CB1A3B1012B19D0A9
:10BFB000013B3B602869F36898470020F8BD43B90E
:10BFC000124A0121C2F800151149D1F81029002A9E
:10BFD000FBD101333B60F368286998470020F8BD26
:10BFE0000C48F8BD0A4AD2F81039002BFBD1074A99
:10BFF0006FF07E40C2F80035FFF748FF3B68D7E797
:10C000000C010020FC000020DC08002000A00250F1
:10C0100000B00250E98FFFFF7047FCF7DBB900204A
:10C0200070470FB407B504A951F8040B0191FCF750
:10C03000DFF903B05DF804EB04B07047044608B5BF
:10C04000084611461A46A047FFF748FCFDF7F4F9E9
:10C05000038B13F0070305D10368002B0CBF0020EE
:10C0600003207047022B05D1408BB0FA80F04009C5
:10C0700080007047012B05D10368002B0CBF002006
:10C08000052070470020704710B50C4600B111B96B
:10C090006FF0150010BD081D00F095F80028F9D1CB
:10C0A000A368032BF6D9F3E72DE9F0410D460746C7
:10C0B0001946281D90461E4600F096F8044638B1F1
:10C0C0003346424629463846A446BDE8F04160471B
:10C0D000BDE8F08110B44FF02004EFF3118284F337
:10C0E0001288BFF36F8F416110BC0121FCF78EB93C
:10C0F00038B50C46054658B151B10B6843B14B6891
:10C1000033B11C22002100F0A1F82C61002038BDC1
:10C110006FF01500FBE770B505460E46FFF7B4FF5C
:10C12000041E15DB4FF02003EFF3118283F3128816
:10C13000BFF36F8F6B8B2C8B4FF6FF718B4204F02C
:10C14000070407D182F31188BFF36F8F6FF00A04E1
:10C15000204670BD022C0CD101336B8382F3118811
:10C16000BFF36F8F0023224631462846FFF79CFF1E
:10C17000EEE7062C14D8DFE804F004131313041AB6
:10C180000400002333606B683BB9C5E90066ACB9B5
:10C1900002212846FCF73AF9DAE71E606E60F6E7FE
:10C1A00082F31188BFF36F8F6FF00404D0E782F33E
:10C1B0001188BFF36F8F6FF08504C9E782F3118890
:10C1C000BFF36F8FC4E7034658B1426802F0030221
:10C1D000012A03D0032A04D1026812B1002098601A
:10C1E00070476FF0150070474268816002F00302EB
:10C1F000032A4FF0000203460CBF006810465A6045
:10C2000070477047FEE700F089BA0146006800F009
:10C2100085BA00210120FFF7F6BF08B5FCF7A2FEA2
:10C22000BDE80840FCF77ABF034600201A5C02B95B
:10C2300070470130FAE710B5431E0A44914200D11D
:10C2400010BD11F8014B03F8014FF7E7C9B20244E2
:10C250000346934200D1704703F8011BF9E7062813
:10C2600008D14FF080430122C3F80025BFF34F8F60
:10C2700020BFFDE77047002383F31188BFF36F8F62
:10C2800070470369C9B20C2201FB0233186C00F03D
:10C29000070070474FF02003EFF3118283F31288F9
:10C2A000BFF36F8F036803F0C00343F00203036022
:10C2B00082F31188BFF36F8F704770B5C9B20369FD
:10C2C0004FF02004EFF3118584F31288BFF36F8FD2
:10C2D0000C2606FB0134246C14F0C00408D0A242E2
:10C2E00006D085F31188BFF36F8F4FF0FF3070BD1C
:10C2F00006FB013301221A6485F31188BFF36F8FA7
:10C30000436803EBC1035B6898470020EFE7802296
:10C31000FFF7D3BFF8B5069F0469C9B24FF02005F7
:10C32000EFF3118685F31288BFF36F8F0C2505FBA1
:10C330000144256C05F0070CBCF1010F0CD12764FA
:10C3400086F31188BFF36F8FC4E90E23436853F857
:10C35000313098470020F8BD05F0C005AF4286F3A4
:10C360001188BFF36F8F0CBF6FF077004FF0FF3075
:10C37000F1E713B580240094FFF7CCFF02B010BDA5
:10C3800010B40069CBB21C2403FB0400002110BCD4
:10C390001047002000F020B9002000F059B91046E5
:10C3A000FFF748B843685B68D3F810350B6000208E
:10C3B000704743685B6802EA010021EA0201C3F8A2
:10C3C0000805C3F80C150020704743685B6800201F
:10C3D000C3F80815704743685B680020C3F80C1564
:10C3E000704743685A68D2F8043521EA03000B40CD
:10C3F000C2F80805C2F80C350020704710B5036973
:10C400005868F8B1884219D19C6808685860A14200
:10C4100000D19860002008602AB15A680A609A68C2
:10C42000596002B99960002010E0814206D1086885
:10C43000206098688142EDD19C60EBE7044600687B
:10C440000028F2D1002AE8D16FF0150010BD026972
:10C450000B46D2E9010183E80300002070474368DE
:10C460001B68D3F88004C3F88004704743680269EE
:10C470001B68D3F8100150B15269002012780A707D
:10C48000C3F81001D3F8102101221A6070474FF051
:10C49000FF30704702680346D2F8580140B95B6824
:10C4A0009B0706D4D2F82001003818BF012070473E
:10C4B0000120704742681368D3F80413C90518D5E2
:10C4C000D3F82011A9B14FF02000EFF3118180F3D0
:10C4D0001288BFF36F8FD3F8200130B10020C3F86A
:10C4E0002001D3F820010120D86081F31188BFF327
:10C4F0006F8F5268D20615D54FF02001EFF31182ED
:10C5000081F31288BFF36F8FD3F8581111B1002156
:10C51000C3F800154FF48001C3F8081382F31188A3
:10C52000BFF36F8F704710B5002204460121282009
:10C53000FCF700FD2820FCF7E1FC2046BDE8104098
:10C54000FDF7F8BB10B50022044601210220FCF7DC
:10C55000F1FC0220FCF7D2FC2046BDE81040FDF7BC
:10C56000E9BB704700F150039B009BB203F180438D
:10C5700003F5883300221A601B68704730B54368A2
:10C580001360057A446804EBC504A34202D36FF03C
:10C59000010030BD5C798C4201D00833F0E7002007
:10C5A000F7E7FFF74DBB08B5FCF79CFBFCF770FC09
:10C5B000BDE80840FFF744BB004700F01BBA08B5D0
:10C5C0000020FCF7A9FC08B9FCF798FC4FF0804369
:10C5D0000022C3F8182508BD08B510B101282CD0D9
:10C5E00008BD4FF08042D2F81834D2F81814C803AE
:10C5F0000BD4D2F81434D9070FD5D2F81C349B07CA
:10C6000008D40223C2F80433EAE703F00303012B42
:10C6100004D013B10020FEF769F800234FF08042E8
:10C62000C2F818350023C2F80431D2F804310223CD
:10C63000C2F8043301239360D2E74FF08043002215
:10C64000C3F80021D3F80021C3F804031860C7E73A
:10C65000FEF74CB8F7B5019001A8DDE9084716468A
:10C660001D46FEF7EBF8019BB6F1000C18BF4FF02A
:10C67000010C00EB83000B1E18BF0123002D43EAC1
:10C680004C0314BF4FF00C0C4FF0000C002C43EA8D
:10C690000C0314BF4FF4E06C4FF0000C002F43EA82
:10C6A0000C03D0F8002714BF4FF4403C4FF0000CAF
:10C6B00043EA0C0322EA030301B109780EB136788C
:10C6C000760019430DB12D78AD0031430CB12478BB
:10C6D000240229430FB13F783F040C433C43C0F888
:10C6E000004703B0F0BD1FB50DF10F030193002308
:10C6F0008DF80F1000931A461946FFF7ABFF05B0EF
:10C700005DF804FB4FF02002EFF3118382F31288EF
:10C71000BFF36F8FFEE708B5FFF7F4FFF8B50546E6
:10C720000E464FF02003EFF3118783F31288BFF317
:10C730006F8FFFF7D3F8314604462846FFF7EBFF2B
:10C7400087F31188BFF36F8F2046BDE8F840FCF7F0
:10C7500073BEFFF77BBDFFF76EBDD0E90332134315
:10C7600013F003030CD143618168994201D8002082
:10C77000704741691160C168426101330A44F3E7BF
:10C780006FF01500704710B5C0E902320023016157
:10C7900083610446FFF7E1FF0028A8BFC4E9004415
:10C7A00010BDF8B504460D464FF02003EFF3118697
:10C7B00083F31288BFF36F8F476977B900F0A2F84F
:10C7C00058B12A684261476700F08CF8314604F19D
:10C7D0000800BDE8F840FEF74FBF2B6862691A6099
:10C7E0002B686361A369013BA36186F31188BFF3E2
:10C7F0006F8FF8BDEFF30580003818BF0120704738
:10C8000008B5FCF765F9BDE80840FFF7AABE90F946
:10C810000E308B4201D0FEF7E9BE00207047034680
:10C820000020C3E90200C3E900337047D0E90032B9
:10C8300013605A600023C0E90033704708B5FFF762
:10C84000F5FF437B23F0020343730023836008BD9D
:10C8500038B504460D46FEF74DFE637B43F00203F8
:10C860006373E5B1A5602B689D4209D16B68C4E98B
:10C8700000531C606C6012E06A689A42F6D01B6834
:10C88000002BF3D094F90E2093F90E108A42F3D0C6
:10C890009142F1DD5A68C4E9003214605C6038BD31
:10C8A00010B501464FF02003EFF3118483F3128893
:10C8B000BFF36F8F10F80B3C13F0280F0DD151F818
:10C8C000103C18380BB1FFF7B9FF11F80B3C23F0FF
:10C8D000140301F80B3CFEF73DFE84F31188BFF30F
:10C8E0006F8F10BD10B54FF02003EFF3118483F369
:10C8F0001288BFF36F8FFEF72DFE84F31188BFF30C
:10C900006F8F10BD38B54FF02003EFF3118583F31F
:10C910001288BFF36F8F0468A0420DD034B1204657
:10C92000FFF78CFF04F1180000F01EF885F3118862
:10C93000BFF36F8F204638BD0024F7E7034620B9C8
:10C94000EFF305820AB9FCF72DBB83F31188BFF31F
:10C950006F8F70474FF02003EFF3118083F312883D
:10C96000BFF36F8FFFF7EABF10B54FF02002EFF370
:10C97000118482F31288BFF36F8F03683BB1FFF716
:10C9800057F8002084F31188BFF36F8F10BD6FF04C
:10C990001500F7E710B54FF02003EFF3118483F390
:10C9A0001288BFF36F8FFFF723F884F31188BFF36A
:10C9B0006F8F10BD70B504460D464FF02003EFF3A6
:10C9C000118683F31288BFF36F8FFFF711F80128E8
:10C9D00007DDA04205DBA0422946A8BF2046FDF79F
:10C9E00051FC86F31188BFF36F8F70BD08B5FFF758
:10C9F0000DF908BD08B1FCF72DBE704770477047B0
:08CA000034B7FF7F01000000C4
:10CA0800F5950F0000000000DD960F0058CA0F00D2
:10CA1800F5B00F0000000000219A0F0070CA0F0047
:10CA2800219A0F0088CA0F00A3C50F00000000005C
:10CA380027C50F00A0CA0F0045C50F00B8CA0F00D0
:10CA480031A10F0000000000A7C50F000000000082
:10CA580077CF0F002CCD0F003CCD0F004C010020EC
:10CA68002008002068CC0F0094CF0F0058CD0F008D
:10CA780078CD0F004E0100207408002062CC0F0012
:10CA8800A2CF0F0068CD0F0078CD0F005001002015
:10CA9800800800205CCC0F00B0CF0F009CCD0F00A9
:10CAA800FCCD0F00520100202800002056CC0F00BA
:10CAB800BECF0F00C8CD0F00FCCD0F0054010020E1
:08CAC8004400002050CC0F00D7
:10CAD000D5A70F00B9C50F000000000013C20F005A
:10CAE000B8CA0F00B5C40F000000000013C20F0049
:10CAF0000000000013C20F000000000013C20F006E
:10CB000051AD0F00B9C50F000000000013C20F00A7
:10CB10000000000013C20F000000000013C20F004D
:10CB20000000000013C20F000000000013C20F003D
:10CB30000000000013C20F000000000013C20F002D
:10CB40000000000013C20F000000000013C20F001D
:10CB50000000000013C20F0000000000B1A10F0090
:10CB60000000000013C20F000000000013C20F00FD
:10CB70000000000013C20F000000000013C20F00ED
:10CB80000000000013C20F000000000013C20F00DD
:10CB90000000000013C20F000000000013C20F00CD
:10CBA0000000000013C20F000000000013C20F00BD
:10CBB0000000000013C20F000000000013C20F00AD
:10CBC0000000000013C20F000000000013C20F009D
:10CBD0000000000013C20F000000000013C20F008D
:10CBE0000000000013C20F000000000013C20F007D
:10CBF0000000000013C20F000000000013C20F006D
:10CC00000000000013C20F000000000013C20F005C
:10CC1000A0CA0F00B5C40F000000000013C20F002F
:10CC20000000000013C20F000000000013C20F003C
:10CC30000000000013C20F000000000013C20F002C
:10CC40000000000013C20F000000000013C20F001C
:10CC500000800080FF7F00800080FF7F00800080D8
:0ECC6000FF7F00800080FF7F00800080FF7F4C
:02CC6E00FFFFC6
:10CC7000E8CF0F0000000000F3CF0F00000000001D
:10CC8000FFCF0F0000000000E1CE0F000000000009
:10CC900086CF0F00000000005ACF0F0000000000F8
:10CCA0000DD00F000000000004CF0F0000000000B6
:10CCB00073CF0F0000000000CCCF0F000000000079
:10CCC0000338FDD8704700000000000005C20F00C7
:10CCD00020000020180000201000002000000000AC
:10CCE00008000020FD8D0F00F18C0F00458D0F0016
:10CCF000A58D0F00000000200000000000000B06C2
:10CD00000200000008CD0F00000000005ECF0F0001
:10CD1000260002070000002066CF0F0022000B1142
:10CD200099960F0069960F000000000085970F008C
:10CD30001D980F0093C30F0099C30F00E9970F00D0
:10CD40000FC30F0073C30F000000000083C20F0069
:10CD50000000000000000000FFFF00000003005082
:10CD60000000000001000000FFFFFFFF0000005076
:10CD70000000000000000000A59A0F00A5C30F00EE
:10CD8000B3C30F00CBC30F00D7C30F00E3C30F0023
:10CD90004D990F00FDC30F0000000000008002400D
:10CDA0000200000000000000ACCD0F000080024037
:10CDB000B8CD0F0001000000C0CD0F000200000040
:10CDC000A10101002200000000200040020000003C
:10CDD00000000000D8CD0F0000200040E4CD0F007F
:10CDE00001000000ECCD0F00040000000600000070
:10CDF0000500020088010100870103006DC40F00D7
:10CE0000199E0F005FC40F00CD9B0F004FC40F0091
:10CE1000F5FFFFFF08CA0F0008CA0F0048CA0F003D
:10CE200050CA0F0058CA0F0058CA0F00FF8FFFFFEB
:10CE3000FF8FFFFFFE8FFFFFFE8FFFFFFD8FFFFFC6
:10CE4000FC8FFFFFFC8FFFFF6D757465785F667266
:10CE500065652063616C6C65642077697468204E39
:10CE6000554C4C20706172616D65746572000000F4
:10CE700043616E277420696E697469616C697A65B3
:10CE8000206D757465782C20776173204E554C4C5D
:10CE90000D0A0000436F756C64206E6F74206C6F18
:10CEA000636B20706F7765722073617665206D7596
:10CEB0007465780048656C6C6F20776F726C6420C5
:10CEC00066726F6D206368696C6420696D61676567
:10CED000206275696C742066726F6D206865780ACF
:10CEE0000063627072696E74665F7061636B616724
:10CEF00065002D0020002B00307800305800286E8F
:10CF0000696C2900706D006D757465785F696E6974
:10CF1000742063616C6C65642077697468204E5579
:10CF20004C4C20706172616D6574657200436F7561
:10CF30006C64206E6F7420616C6C6F63617465202B
:10CF40006D75746578206265666F726520696E69BB
:10CF50007469616C697A696E67006D707500464C22
:10CF60004153485F30005352414D5F300000000193
:10CF7000000000736F6300636C6F636B403430308C
:10CF8000303030303000636C6F636B5F636F6E7492
:10CF9000726F6C006770696F4035303030303330FD
:10CFA00030006770696F40353030303030303000DD
:10CFB0007561727440343030323830303000756111
:10CFC00072744034303030323030300075617274F9
:10CFD0005F6E7266785F75617274650000000000B4
:10CFE00000010100000000004E5246585F434C4FC4
:10CFF000434B004E5246585F4750494F5445004EF0
:10D000005246585F505049006D61696E006F730061
:10D010001FC00F00FFFFFFFF6C0100203A0000005F
:10D02000800100203A000000580100203A00000072
:10D03000940100203A0000000000000000C201003E
:10D040000001030000000000A20A0020A10A002045
:10D05000000000000000000000C201000001030009
:10D0600000000000A40A0020A30A00200000000025
:10D070000090D0030000000000000000000000004D
:10D0800000000000000000000000000000000000A0
:10D090000000000000000000000000000000000090
:10D0A0000000000000000000000000000000000080
:10D0B0000000000000000000000000000000000070
:10D0C0000000000000000000000000000000000060
:10D0D0000000000000000000000000000000000050
:10D0E00000000000FF000000000000000000000041
:10D0F000FFFF0F00E4000020E4000020000000001B
:10D1000079BC0F00CC0800203A00003A95BD0F0012
:10D11000E1BC0F0015BD0F005DBD0F003001002008
:10D12000F400002028010020000000002001002061
:10D13000D00800203A00003AD40800203A00003A13
:10D14000D80800203A00003A100100201C010020FD
:0CD15000140100200C0100204001002010
:0AD15C0000000000000000000000C9
:02D16600FFFFC9
:10D1680058010020580100200000000000000000C5
:10D178000E0000006C0100206C010020000000007F
:10D18800000000000E000000800100208001002047
:10D1980000000000000000000E00000094010020C4
:10D1A8009401002000000000000000000E000000B4
:04D1B80015E015E089
:04000003F000935D19
:00000001FF
